{
  "contractName": "SBT",
  "abi": [
    {
      "inputs": [],
      "name": "registerCompany",
      "outputs": [
        {
          "internalType": "bool",
          "name": "",
          "type": "bool"
        }
      ],
      "stateMutability": "nonpayable",
      "type": "function"
    },
    {
      "inputs": [
        {
          "internalType": "address",
          "name": "company",
          "type": "address"
        },
        {
          "internalType": "bytes",
          "name": "credentialId",
          "type": "bytes"
        }
      ],
      "name": "requestSBT",
      "outputs": [
        {
          "internalType": "bool",
          "name": "",
          "type": "bool"
        }
      ],
      "stateMutability": "nonpayable",
      "type": "function"
    },
    {
      "inputs": [],
      "name": "getCountIssued",
      "outputs": [
        {
          "internalType": "uint256",
          "name": "",
          "type": "uint256"
        }
      ],
      "stateMutability": "view",
      "type": "function",
      "constant": true
    },
    {
      "inputs": [],
      "name": "getPendingSBTCandidate",
      "outputs": [
        {
          "internalType": "bytes[]",
          "name": "",
          "type": "bytes[]"
        },
        {
          "internalType": "address[]",
          "name": "",
          "type": "address[]"
        }
      ],
      "stateMutability": "view",
      "type": "function",
      "constant": true
    },
    {
      "inputs": [],
      "name": "getPendingSBTCompany",
      "outputs": [
        {
          "internalType": "bytes[]",
          "name": "",
          "type": "bytes[]"
        },
        {
          "internalType": "address[]",
          "name": "",
          "type": "address[]"
        }
      ],
      "stateMutability": "view",
      "type": "function",
      "constant": true
    },
    {
      "inputs": [
        {
          "internalType": "address",
          "name": "candidate",
          "type": "address"
        },
        {
          "components": [
            {
              "internalType": "uint256",
              "name": "id",
              "type": "uint256"
            },
            {
              "internalType": "string",
              "name": "name",
              "type": "string"
            },
            {
              "internalType": "uint8",
              "name": "issueDay",
              "type": "uint8"
            },
            {
              "internalType": "uint8",
              "name": "issueMonth",
              "type": "uint8"
            },
            {
              "internalType": "uint16",
              "name": "issueYear",
              "type": "uint16"
            },
            {
              "internalType": "uint8",
              "name": "difficulty",
              "type": "uint8"
            },
            {
              "internalType": "uint8",
              "name": "testType",
              "type": "uint8"
            }
          ],
          "internalType": "struct SBT.SkillSBT",
          "name": "skillSBT",
          "type": "tuple"
        },
        {
          "internalType": "bool",
          "name": "response",
          "type": "bool"
        }
      ],
      "name": "respondToRequest",
      "outputs": [],
      "stateMutability": "nonpayable",
      "type": "function"
    },
    {
      "inputs": [
        {
          "internalType": "address",
          "name": "candidate",
          "type": "address"
        }
      ],
      "name": "rejectRequest",
      "outputs": [],
      "stateMutability": "nonpayable",
      "type": "function"
    },
    {
      "inputs": [],
      "name": "getIssuedSBTCandidate",
      "outputs": [
        {
          "components": [
            {
              "internalType": "uint256",
              "name": "id",
              "type": "uint256"
            },
            {
              "internalType": "string",
              "name": "name",
              "type": "string"
            },
            {
              "internalType": "uint8",
              "name": "issueDay",
              "type": "uint8"
            },
            {
              "internalType": "uint8",
              "name": "issueMonth",
              "type": "uint8"
            },
            {
              "internalType": "uint16",
              "name": "issueYear",
              "type": "uint16"
            },
            {
              "internalType": "uint8",
              "name": "difficulty",
              "type": "uint8"
            },
            {
              "internalType": "uint8",
              "name": "testType",
              "type": "uint8"
            }
          ],
          "internalType": "struct SBT.SkillSBT[]",
          "name": "",
          "type": "tuple[]"
        }
      ],
      "stateMutability": "view",
      "type": "function",
      "constant": true
    },
    {
      "inputs": [
        {
          "internalType": "address",
          "name": "company",
          "type": "address"
        },
        {
          "internalType": "address",
          "name": "candidate",
          "type": "address"
        },
        {
          "internalType": "uint256",
          "name": "id",
          "type": "uint256"
        }
      ],
      "name": "verifySBT",
      "outputs": [
        {
          "internalType": "bool",
          "name": "",
          "type": "bool"
        }
      ],
      "stateMutability": "view",
      "type": "function",
      "constant": true
    }
  ],
  "bytecode": "0x608060405234801561001057600080fd5b50612b32806100206000396000f3fe608060405234801561001057600080fd5b50600436106100935760003560e01c80638992dd57116100665780638992dd571461010f578063bab163811461013f578063ca07b4b41461015d578063d505b6cb14610179578063de7a7f431461019857610093565b806356a0c23f1461009857806374350d86146100b65780637837c3e7146100d55780637cad1107146100f1575b600080fd5b6100a06101c8565b6040516100ad9190611f47565b60405180910390f35b6100be610394565b6040516100cc929190612170565b60405180910390f35b6100ef60048036038101906100ea91906124b2565b6106be565b005b6100f9610af2565b6040516101069190612530565b60405180910390f35b6101296004803603810190610124919061254b565b610b90565b6040516101369190612530565b60405180910390f35b610147610e85565b60405161015491906125ad565b60405180910390f35b610177600480360381019061017291906125c8565b610ecc565b005b6101816114d3565b60405161018f929190612170565b60405180910390f35b6101b260048036038101906101ad9190612696565b6117fd565b6040516101bf9190612530565b60405180910390f35b6060600460003373ffffffffffffffffffffffffffffffffffffffff1673ffffffffffffffffffffffffffffffffffffffff168152602001908152602001600020805480602002602001604051908101604052809291908181526020016000905b8282101561038b57838290600052602060002090600302016040518060e00160405290816000820154815260200160018201805461026690612721565b80601f016020809104026020016040519081016040528092919081815260200182805461029290612721565b80156102df5780601f106102b4576101008083540402835291602001916102df565b820191906000526020600020905b8154815290600101906020018083116102c257829003601f168201915b505050505081526020016002820160009054906101000a900460ff1660ff1660ff1681526020016002820160019054906101000a900460ff1660ff1660ff1681526020016002820160029054906101000a900461ffff1661ffff1661ffff1681526020016002820160049054906101000a900460ff1660ff1660ff1681526020016002820160059054906101000a900460ff1660ff1660ff168152505081526020019060010190610229565b50505050905090565b6060806000600260003373ffffffffffffffffffffffffffffffffffffffff1673ffffffffffffffffffffffffffffffffffffffff16815260200190815260200160002080549050905060008167ffffffffffffffff8111156103fa576103f96121ec565b5b60405190808252806020026020018201604052801561042d57816020015b60608152602001906001900390816104185790505b50905060005b828110156105eb576000803373ffffffffffffffffffffffffffffffffffffffff1673ffffffffffffffffffffffffffffffffffffffff1681526020019081526020016000206000600260003373ffffffffffffffffffffffffffffffffffffffff1673ffffffffffffffffffffffffffffffffffffffff16815260200190815260200160002083815481106104cc576104cb612753565b5b9060005260206000200160009054906101000a900473ffffffffffffffffffffffffffffffffffffffff1673ffffffffffffffffffffffffffffffffffffffff1673ffffffffffffffffffffffffffffffffffffffff168152602001908152602001600020805461053c90612721565b80601f016020809104026020016040519081016040528092919081815260200182805461056890612721565b80156105b55780601f1061058a576101008083540402835291602001916105b5565b820191906000526020600020905b81548152906001019060200180831161059857829003601f168201915b50505050508282815181106105cd576105cc612753565b5b602002602001018190525080806105e3906127b1565b915050610433565b5080600260003373ffffffffffffffffffffffffffffffffffffffff1673ffffffffffffffffffffffffffffffffffffffff168152602001908152602001600020808054806020026020016040519081016040528092919081815260200182805480156106ad57602002820191906000526020600020905b8160009054906101000a900473ffffffffffffffffffffffffffffffffffffffff1673ffffffffffffffffffffffffffffffffffffffff1681526020019060010190808311610663575b505050505090509350935050509091565b60008060003373ffffffffffffffffffffffffffffffffffffffff1673ffffffffffffffffffffffffffffffffffffffff16815260200190815260200160002060008573ffffffffffffffffffffffffffffffffffffffff1673ffffffffffffffffffffffffffffffffffffffff168152602001908152602001600020805461074690612721565b90501415610789576040517f08c379a00000000000000000000000000000000000000000000000000000000081526004016107809061287d565b60405180910390fd5b600115158115151415610ae457600560003373ffffffffffffffffffffffffffffffffffffffff1673ffffffffffffffffffffffffffffffffffffffff16815260200190815260200160002054826000018181525050600560003373ffffffffffffffffffffffffffffffffffffffff1673ffffffffffffffffffffffffffffffffffffffff168152602001908152602001600020600081548092919061082f906127b1565b9190505550600460008473ffffffffffffffffffffffffffffffffffffffff1673ffffffffffffffffffffffffffffffffffffffff1681526020019081526020016000208290806001815401808255809150506001900390600052602060002090600302016000909190919091506000820151816000015560208201518160010190805190602001906108c3929190611b95565b5060408201518160020160006101000a81548160ff021916908360ff16021790555060608201518160020160016101000a81548160ff021916908360ff16021790555060808201518160020160026101000a81548161ffff021916908361ffff16021790555060a08201518160020160046101000a81548160ff021916908360ff16021790555060c08201518160020160056101000a81548160ff021916908360ff1602179055505050600360003373ffffffffffffffffffffffffffffffffffffffff1673ffffffffffffffffffffffffffffffffffffffff16815260200190815260200160002060008473ffffffffffffffffffffffffffffffffffffffff1673ffffffffffffffffffffffffffffffffffffffff168152602001908152602001600020829080600181540180825580915050600190039060005260206000209060030201600090919091909150600082015181600001556020820151816001019080519060200190610a39929190611b95565b5060408201518160020160006101000a81548160ff021916908360ff16021790555060608201518160020160016101000a81548160ff021916908360ff16021790555060808201518160020160026101000a81548161ffff021916908361ffff16021790555060a08201518160020160046101000a81548160ff021916908360ff16021790555060c08201518160020160056101000a81548160ff021916908360ff16021790555050505b610aed83610ecc565b505050565b600080600560003373ffffffffffffffffffffffffffffffffffffffff1673ffffffffffffffffffffffffffffffffffffffff1681526020019081526020016000205414610b435760009050610b8d565b6001600560003373ffffffffffffffffffffffffffffffffffffffff1673ffffffffffffffffffffffffffffffffffffffff16815260200190815260200160002081905550600190505b90565b600060018210158015610be25750600560008573ffffffffffffffffffffffffffffffffffffffff1673ffffffffffffffffffffffffffffffffffffffff168152602001908152602001600020548211155b610c21576040517f08c379a0000000000000000000000000000000000000000000000000000000008152600401610c18906128e9565b60405180910390fd5b6000600360008673ffffffffffffffffffffffffffffffffffffffff1673ffffffffffffffffffffffffffffffffffffffff16815260200190815260200160002060008573ffffffffffffffffffffffffffffffffffffffff1673ffffffffffffffffffffffffffffffffffffffff168152602001908152602001600020805480602002602001604051908101604052809291908181526020016000905b82821015610e2157838290600052602060002090600302016040518060e001604052908160008201548152602001600182018054610cfc90612721565b80601f0160208091040260200160405190810160405280929190818152602001828054610d2890612721565b8015610d755780601f10610d4a57610100808354040283529160200191610d75565b820191906000526020600020905b815481529060010190602001808311610d5857829003601f168201915b505050505081526020016002820160009054906101000a900460ff1660ff1660ff1681526020016002820160019054906101000a900460ff1660ff1660ff1681526020016002820160029054906101000a900461ffff1661ffff1661ffff1681526020016002820160049054906101000a900460ff1660ff1660ff1681526020016002820160059054906101000a900460ff1660ff1660ff168152505081526020019060010190610cbf565b50505050905060005b8151811015610e775783828281518110610e4757610e46612753565b5b6020026020010151600001511415610e6457600192505050610e7e565b8080610e6f906127b1565b915050610e2a565b5060009150505b9392505050565b6000600560003373ffffffffffffffffffffffffffffffffffffffff1673ffffffffffffffffffffffffffffffffffffffff16815260200190815260200160002054905090565b6000803373ffffffffffffffffffffffffffffffffffffffff1673ffffffffffffffffffffffffffffffffffffffff16815260200190815260200160002060008273ffffffffffffffffffffffffffffffffffffffff1673ffffffffffffffffffffffffffffffffffffffff1681526020019081526020016000206000610f539190611c1b565b6000600160008373ffffffffffffffffffffffffffffffffffffffff1673ffffffffffffffffffffffffffffffffffffffff16815260200190815260200160002080549050905060005b81811015611211573373ffffffffffffffffffffffffffffffffffffffff16600160008573ffffffffffffffffffffffffffffffffffffffff1673ffffffffffffffffffffffffffffffffffffffff168152602001908152602001600020828154811061100d5761100c612753565b5b9060005260206000200160009054906101000a900473ffffffffffffffffffffffffffffffffffffffff1673ffffffffffffffffffffffffffffffffffffffff1614156111fe57600160008473ffffffffffffffffffffffffffffffffffffffff1673ffffffffffffffffffffffffffffffffffffffff1681526020019081526020016000206001836110a09190612909565b815481106110b1576110b0612753565b5b9060005260206000200160009054906101000a900473ffffffffffffffffffffffffffffffffffffffff16600160008573ffffffffffffffffffffffffffffffffffffffff1673ffffffffffffffffffffffffffffffffffffffff168152602001908152602001600020828154811061112d5761112c612753565b5b9060005260206000200160006101000a81548173ffffffffffffffffffffffffffffffffffffffff021916908373ffffffffffffffffffffffffffffffffffffffff160217905550600160008473ffffffffffffffffffffffffffffffffffffffff1673ffffffffffffffffffffffffffffffffffffffff1681526020019081526020016000208054806111c4576111c361293d565b5b6001900381819060005260206000200160006101000a81549073ffffffffffffffffffffffffffffffffffffffff02191690559055611211565b8080611209906127b1565b915050610f9d565b50600260003373ffffffffffffffffffffffffffffffffffffffff1673ffffffffffffffffffffffffffffffffffffffff16815260200190815260200160002080549050905060005b818110156114ce578273ffffffffffffffffffffffffffffffffffffffff16600260003373ffffffffffffffffffffffffffffffffffffffff1673ffffffffffffffffffffffffffffffffffffffff16815260200190815260200160002082815481106112ca576112c9612753565b5b9060005260206000200160009054906101000a900473ffffffffffffffffffffffffffffffffffffffff1673ffffffffffffffffffffffffffffffffffffffff1614156114bb57600260003373ffffffffffffffffffffffffffffffffffffffff1673ffffffffffffffffffffffffffffffffffffffff16815260200190815260200160002060018361135d9190612909565b8154811061136e5761136d612753565b5b9060005260206000200160009054906101000a900473ffffffffffffffffffffffffffffffffffffffff16600260003373ffffffffffffffffffffffffffffffffffffffff1673ffffffffffffffffffffffffffffffffffffffff16815260200190815260200160002082815481106113ea576113e9612753565b5b9060005260206000200160006101000a81548173ffffffffffffffffffffffffffffffffffffffff021916908373ffffffffffffffffffffffffffffffffffffffff160217905550600260003373ffffffffffffffffffffffffffffffffffffffff1673ffffffffffffffffffffffffffffffffffffffff1681526020019081526020016000208054806114815761148061293d565b5b6001900381819060005260206000200160006101000a81549073ffffffffffffffffffffffffffffffffffffffff021916905590556114ce565b80806114c6906127b1565b91505061125a565b505050565b6060806000600160003373ffffffffffffffffffffffffffffffffffffffff1673ffffffffffffffffffffffffffffffffffffffff16815260200190815260200160002080549050905060008167ffffffffffffffff811115611539576115386121ec565b5b60405190808252806020026020018201604052801561156c57816020015b60608152602001906001900390816115575790505b50905060005b8281101561172a57600080600160003373ffffffffffffffffffffffffffffffffffffffff1673ffffffffffffffffffffffffffffffffffffffff16815260200190815260200160002083815481106115ce576115cd612753565b5b9060005260206000200160009054906101000a900473ffffffffffffffffffffffffffffffffffffffff1673ffffffffffffffffffffffffffffffffffffffff1673ffffffffffffffffffffffffffffffffffffffff16815260200190815260200160002060003373ffffffffffffffffffffffffffffffffffffffff1673ffffffffffffffffffffffffffffffffffffffff168152602001908152602001600020805461167b90612721565b80601f01602080910402602001604051908101604052809291908181526020018280546116a790612721565b80156116f45780601f106116c9576101008083540402835291602001916116f4565b820191906000526020600020905b8154815290600101906020018083116116d757829003601f168201915b505050505082828151811061170c5761170b612753565b5b60200260200101819052508080611722906127b1565b915050611572565b5080600160003373ffffffffffffffffffffffffffffffffffffffff1673ffffffffffffffffffffffffffffffffffffffff168152602001908152602001600020808054806020026020016040519081016040528092919081815260200182805480156117ec57602002820191906000526020600020905b8160009054906101000a900473ffffffffffffffffffffffffffffffffffffffff1673ffffffffffffffffffffffffffffffffffffffff16815260200190600101908083116117a2575b505050505090509350935050509091565b60008073ffffffffffffffffffffffffffffffffffffffff168373ffffffffffffffffffffffffffffffffffffffff16141561186e576040517f08c379a0000000000000000000000000000000000000000000000000000000008152600401611865906129de565b60405180910390fd5b6000600560008573ffffffffffffffffffffffffffffffffffffffff1673ffffffffffffffffffffffffffffffffffffffff1681526020019081526020016000205414156118f1576040517f08c379a00000000000000000000000000000000000000000000000000000000081526004016118e890612a4a565b60405180910390fd5b60008060008573ffffffffffffffffffffffffffffffffffffffff1673ffffffffffffffffffffffffffffffffffffffff16815260200190815260200160002060003373ffffffffffffffffffffffffffffffffffffffff1673ffffffffffffffffffffffffffffffffffffffff168152602001908152602001600020805461197990612721565b9050146119bb576040517f08c379a00000000000000000000000000000000000000000000000000000000081526004016119b290612adc565b60405180910390fd5b816000808573ffffffffffffffffffffffffffffffffffffffff1673ffffffffffffffffffffffffffffffffffffffff16815260200190815260200160002060003373ffffffffffffffffffffffffffffffffffffffff1673ffffffffffffffffffffffffffffffffffffffff1681526020019081526020016000209080519060200190611a4a929190611c5b565b50600160003373ffffffffffffffffffffffffffffffffffffffff1673ffffffffffffffffffffffffffffffffffffffff168152602001908152602001600020839080600181540180825580915050600190039060005260206000200160009091909190916101000a81548173ffffffffffffffffffffffffffffffffffffffff021916908373ffffffffffffffffffffffffffffffffffffffff160217905550600260008473ffffffffffffffffffffffffffffffffffffffff1673ffffffffffffffffffffffffffffffffffffffff168152602001908152602001600020339080600181540180825580915050600190039060005260206000200160009091909190916101000a81548173ffffffffffffffffffffffffffffffffffffffff021916908373ffffffffffffffffffffffffffffffffffffffff1602179055506001905092915050565b828054611ba190612721565b90600052602060002090601f016020900481019282611bc35760008555611c0a565b82601f10611bdc57805160ff1916838001178555611c0a565b82800160010185558215611c0a579182015b82811115611c09578251825591602001919060010190611bee565b5b509050611c179190611ce1565b5090565b508054611c2790612721565b6000825580601f10611c395750611c58565b601f016020900490600052602060002090810190611c579190611ce1565b5b50565b828054611c6790612721565b90600052602060002090601f016020900481019282611c895760008555611cd0565b82601f10611ca257805160ff1916838001178555611cd0565b82800160010185558215611cd0579182015b82811115611ccf578251825591602001919060010190611cb4565b5b509050611cdd9190611ce1565b5090565b5b80821115611cfa576000816000905550600101611ce2565b5090565b600081519050919050565b600082825260208201905092915050565b6000819050602082019050919050565b6000819050919050565b611d3d81611d2a565b82525050565b600081519050919050565b600082825260208201905092915050565b60005b83811015611d7d578082015181840152602081019050611d62565b83811115611d8c576000848401525b50505050565b6000601f19601f8301169050919050565b6000611dae82611d43565b611db88185611d4e565b9350611dc8818560208601611d5f565b611dd181611d92565b840191505092915050565b600060ff82169050919050565b611df281611ddc565b82525050565b600061ffff82169050919050565b611e0f81611df8565b82525050565b600060e083016000830151611e2d6000860182611d34565b5060208301518482036020860152611e458282611da3565b9150506040830151611e5a6040860182611de9565b506060830151611e6d6060860182611de9565b506080830151611e806080860182611e06565b5060a0830151611e9360a0860182611de9565b5060c0830151611ea660c0860182611de9565b508091505092915050565b6000611ebd8383611e15565b905092915050565b6000602082019050919050565b6000611edd82611cfe565b611ee78185611d09565b935083602082028501611ef985611d1a565b8060005b85811015611f355784840389528151611f168582611eb1565b9450611f2183611ec5565b925060208a01995050600181019050611efd565b50829750879550505050505092915050565b60006020820190508181036000830152611f618184611ed2565b905092915050565b600081519050919050565b600082825260208201905092915050565b6000819050602082019050919050565b600081519050919050565b600082825260208201905092915050565b6000611fbc82611f95565b611fc68185611fa0565b9350611fd6818560208601611d5f565b611fdf81611d92565b840191505092915050565b6000611ff68383611fb1565b905092915050565b6000602082019050919050565b600061201682611f69565b6120208185611f74565b93508360208202850161203285611f85565b8060005b8581101561206e578484038952815161204f8582611fea565b945061205a83611ffe565b925060208a01995050600181019050612036565b50829750879550505050505092915050565b600081519050919050565b600082825260208201905092915050565b6000819050602082019050919050565b600073ffffffffffffffffffffffffffffffffffffffff82169050919050565b60006120d7826120ac565b9050919050565b6120e7816120cc565b82525050565b60006120f983836120de565b60208301905092915050565b6000602082019050919050565b600061211d82612080565b612127818561208b565b93506121328361209c565b8060005b8381101561216357815161214a88826120ed565b975061215583612105565b925050600181019050612136565b5085935050505092915050565b6000604082019050818103600083015261218a818561200b565b9050818103602083015261219e8184612112565b90509392505050565b6000604051905090565b600080fd5b600080fd5b6121c4816120cc565b81146121cf57600080fd5b50565b6000813590506121e1816121bb565b92915050565b600080fd5b7f4e487b7100000000000000000000000000000000000000000000000000000000600052604160045260246000fd5b61222482611d92565b810181811067ffffffffffffffff82111715612243576122426121ec565b5b80604052505050565b60006122566121a7565b9050612262828261221b565b919050565b600080fd5b61227581611d2a565b811461228057600080fd5b50565b6000813590506122928161226c565b92915050565b600080fd5b600080fd5b600067ffffffffffffffff8211156122bd576122bc6121ec565b5b6122c682611d92565b9050602081019050919050565b82818337600083830152505050565b60006122f56122f0846122a2565b61224c565b9050828152602081018484840111156123115761231061229d565b5b61231c8482856122d3565b509392505050565b600082601f83011261233957612338612298565b5b81356123498482602086016122e2565b91505092915050565b61235b81611ddc565b811461236657600080fd5b50565b60008135905061237881612352565b92915050565b61238781611df8565b811461239257600080fd5b50565b6000813590506123a48161237e565b92915050565b600060e082840312156123c0576123bf6121e7565b5b6123ca60e061224c565b905060006123da84828501612283565b600083015250602082013567ffffffffffffffff8111156123fe576123fd612267565b5b61240a84828501612324565b602083015250604061241e84828501612369565b604083015250606061243284828501612369565b606083015250608061244684828501612395565b60808301525060a061245a84828501612369565b60a08301525060c061246e84828501612369565b60c08301525092915050565b60008115159050919050565b61248f8161247a565b811461249a57600080fd5b50565b6000813590506124ac81612486565b92915050565b6000806000606084860312156124cb576124ca6121b1565b5b60006124d9868287016121d2565b935050602084013567ffffffffffffffff8111156124fa576124f96121b6565b5b612506868287016123aa565b92505060406125178682870161249d565b9150509250925092565b61252a8161247a565b82525050565b60006020820190506125456000830184612521565b92915050565b600080600060608486031215612564576125636121b1565b5b6000612572868287016121d2565b9350506020612583868287016121d2565b925050604061259486828701612283565b9150509250925092565b6125a781611d2a565b82525050565b60006020820190506125c2600083018461259e565b92915050565b6000602082840312156125de576125dd6121b1565b5b60006125ec848285016121d2565b91505092915050565b600067ffffffffffffffff8211156126105761260f6121ec565b5b61261982611d92565b9050602081019050919050565b6000612639612634846125f5565b61224c565b9050828152602081018484840111156126555761265461229d565b5b6126608482856122d3565b509392505050565b600082601f83011261267d5761267c612298565b5b813561268d848260208601612626565b91505092915050565b600080604083850312156126ad576126ac6121b1565b5b60006126bb858286016121d2565b925050602083013567ffffffffffffffff8111156126dc576126db6121b6565b5b6126e885828601612668565b9150509250929050565b7f4e487b7100000000000000000000000000000000000000000000000000000000600052602260045260246000fd5b6000600282049050600182168061273957607f821691505b6020821081141561274d5761274c6126f2565b5b50919050565b7f4e487b7100000000000000000000000000000000000000000000000000000000600052603260045260246000fd5b7f4e487b7100000000000000000000000000000000000000000000000000000000600052601160045260246000fd5b60006127bc82611d2a565b91507fffffffffffffffffffffffffffffffffffffffffffffffffffffffffffffffff8214156127ef576127ee612782565b5b600182019050919050565b600082825260208201905092915050565b7f5342543a2043616e64696461746520686173206e6f742072657175657374207460008201527f6865205342540000000000000000000000000000000000000000000000000000602082015250565b60006128676026836127fa565b91506128728261280b565b604082019050919050565b600060208201905081810360008301526128968161285a565b9050919050565b7f5342543a20696e76616c69642069640000000000000000000000000000000000600082015250565b60006128d3600f836127fa565b91506128de8261289d565b602082019050919050565b60006020820190508181036000830152612902816128c6565b9050919050565b600061291482611d2a565b915061291f83611d2a565b92508282101561293257612931612782565b5b828203905092915050565b7f4e487b7100000000000000000000000000000000000000000000000000000000600052603160045260246000fd5b7f5342543a20636f6d70616e7920616464726573732063616e6e6f74206265207460008201527f6865207a65726f20616464726573730000000000000000000000000000000000602082015250565b60006129c8602f836127fa565b91506129d38261296c565b604082019050919050565b600060208201905081810360008301526129f7816129bb565b9050919050565b7f5342543a20636f6d70616e79206e6f7420726567697374657264000000000000600082015250565b6000612a34601a836127fa565b9150612a3f826129fe565b602082019050919050565b60006020820190508181036000830152612a6381612a27565b9050919050565b7f5342543a207265717565737420697320616c726561647920696e2070656e646960008201527f6e67206c69737400000000000000000000000000000000000000000000000000602082015250565b6000612ac66027836127fa565b9150612ad182612a6a565b604082019050919050565b60006020820190508181036000830152612af581612ab9565b905091905056fea264697066735822122001312738fbfbe6698c4520f3af0a424554656a9a6d33ab11491d4eed70ee133264736f6c634300080a0033",
  "immutableReferences": {},
  "source": "// SPDX-License-Identifier: MIT\r\npragma solidity ^0.8.0;\r\n\r\ncontract SBT {\r\n\r\n    struct SkillSBT {\r\n        uint id;\r\n        string name;\r\n        uint8 issueDay;\r\n        uint8 issueMonth;\r\n        uint16 issueYear;\r\n        uint8 difficulty;\r\n        uint8 testType;\r\n    }\r\n\r\n    mapping(address => mapping(address => bytes)) private pendingSBTRequests;\r\n    mapping(address => address[]) private pendingSBTCandidate;\r\n    mapping(address => address[]) private pendingSBTCompany;\r\n\r\n    mapping(address => mapping(address => SkillSBT[])) private issuedSBT;\r\n    mapping(address => SkillSBT[]) private issuedSBTCandidate;\r\n\r\n    /** \r\n     * @dev Tracks the count of a company's issued SBT\r\n     * \r\n     * - 0 means company is not registered.\r\n     * - 1 means company is registerd.\r\n     * - n means company has issued n-1 SBT. \r\n    */\r\n    mapping (address => uint) private countIssued;\r\n\r\n    /** \r\n     * @dev Registers the caller with the contract.\r\n     *\r\n     * Requirements:\r\n     *\r\n     * - the caller (company) must not be already registered.\r\n     */\r\n    function registerCompany() external returns (bool) {\r\n        if (countIssued[msg.sender] != 0) {\r\n            return false;\r\n        }\r\n        countIssued[msg.sender] = 1;\r\n        return true;\r\n    }\r\n\r\n    /**\r\n     * @dev Requests a SBT from `company` for the caller's account.\r\n     *\r\n     * Returns a boolean value indicating whether the operation succeeded.\r\n     *\r\n     * Requirements:\r\n     *\r\n     * - `company` cannot be the zero address.\r\n     * - `company` must be registerd with contract.\r\n     * - the caller must not have requested the same `company` before.\r\n     */\r\n    function requestSBT(address company, bytes memory credentialId) external returns (bool) {\r\n        require(company != address(0), \"SBT: company address cannot be the zero address\");\r\n        require(countIssued[company] != 0, \"SBT: company not registerd\");\r\n\r\n        require (pendingSBTRequests[company][msg.sender].length == 0, \"SBT: request is already in pending list\");\r\n\r\n        pendingSBTRequests[company][msg.sender] = credentialId;\r\n        pendingSBTCandidate[msg.sender].push(company);\r\n        pendingSBTCompany[company].push(msg.sender);\r\n        return true;\r\n    }\r\n\r\n    /** \r\n     * @dev Returns count of SBT issued by the caller (company)\r\n     */\r\n    function getCountIssued() external view returns (uint) {\r\n        return countIssued[msg.sender];\r\n    }\r\n\r\n    /**\r\n     * @dev Returns the Pending SBTs of the caller [Candidate]\r\n     */\r\n    function getPendingSBTCandidate() external view returns (bytes[] memory, address[] memory) {\r\n        uint length = pendingSBTCandidate[msg.sender].length;\r\n        bytes[] memory credentialIds = new bytes[](length);\r\n        for (uint i = 0; i < length; i++) {\r\n            credentialIds[i] = pendingSBTRequests[pendingSBTCandidate[msg.sender][i]][msg.sender];\r\n        }\r\n        return (credentialIds, pendingSBTCandidate[msg.sender]);\r\n    }\r\n\r\n    /**\r\n     * @dev Returns the Pending SBTs of the caller [Company]\r\n     */\r\n    function getPendingSBTCompany() external view returns (bytes[] memory, address[] memory) {\r\n        uint length = pendingSBTCompany[msg.sender].length;\r\n        bytes[] memory credentialIds = new bytes[](length);\r\n        for (uint i = 0; i < length; i++) {\r\n            credentialIds[i] = pendingSBTRequests[msg.sender][pendingSBTCompany[msg.sender][i]];\r\n        }\r\n        return (credentialIds, pendingSBTCompany[msg.sender]);\r\n    }\r\n\r\n    /**\r\n     * @dev Takes an address, credentialId, response and responds to the SBT\r\n     * Request\r\n     */\r\n    function respondToRequest(address candidate, SkillSBT memory skillSBT, bool response) external {\r\n        require(\r\n            pendingSBTRequests[msg.sender][candidate].length != 0,\r\n            \"SBT: Candidate has not request the SBT\"\r\n        );\r\n        \r\n        if (response == true) {\r\n            skillSBT.id = countIssued[msg.sender];\r\n            countIssued[msg.sender]++;\r\n            issuedSBTCandidate[candidate].push(skillSBT);\r\n            issuedSBT[msg.sender][candidate].push(skillSBT);\r\n        }\r\n        rejectRequest(candidate);\r\n    }\r\n\r\n\r\n    /**\r\n     * @dev Removes the request from the pending requests list.\r\n     */\r\n    function rejectRequest(address candidate) public {\r\n        delete pendingSBTRequests[msg.sender][candidate];\r\n        uint length = pendingSBTCandidate[candidate].length;\r\n        for (uint i = 0; i < length; i++) {\r\n            if (pendingSBTCandidate[candidate][i] == msg.sender) {\r\n                pendingSBTCandidate[candidate][i] = pendingSBTCandidate[candidate][length-1];\r\n                pendingSBTCandidate[candidate].pop();\r\n                break;\r\n            }\r\n        }\r\n\r\n        length = pendingSBTCompany[msg.sender].length;\r\n        for (uint i = 0; i < length; i++) {\r\n            if (pendingSBTCompany[msg.sender][i] == candidate) {\r\n                pendingSBTCompany[msg.sender][i] = pendingSBTCompany[msg.sender][length-1];\r\n                pendingSBTCompany[msg.sender].pop();\r\n                break;\r\n            }\r\n        }\r\n    }\r\n\r\n    /**\r\n     * @dev Returns all the SBTs issued to the caller.\r\n     */\r\n    function getIssuedSBTCandidate() external view returns (SkillSBT[] memory) {\r\n        return issuedSBTCandidate[msg.sender];\r\n    }\r\n\r\n    /**\r\n     * @dev Returns a boolean value indicating whether `company` has issued a SBT\r\n     * with `id` to the `candidate` or not.\r\n     *\r\n     * Requirements:\r\n     *\r\n     * - `id` cannot be greater than the total SBT issued by the `company`\r\n     */\r\n    function verifySBT(address company, address candidate, uint id) external view returns (bool) {\r\n        require (id >= 1 && id <= countIssued[company], \"SBT: invalid id\");\r\n        SkillSBT[] memory temp = issuedSBT[company][candidate];   \r\n        for (uint i = 0; i < temp.length; i++) {\r\n            if (temp[i].id == id) {\r\n                return true;\r\n            }\r\n        }\r\n        return false;\r\n    }\r\n\r\n}",
  "sourcePath": "C:\\My Data\\Sem0\\React Apps\\soul-xp\\client\\src\\truffle\\contracts\\SBT.sol",
  "compiler": {
    "name": "solc",
    "version": "0.8.10+commit.fc410830.Emscripten.clang"
  },
  "schemaVersion": "3.4.3",
  "updatedAt": "2022-07-25T21:53:23.644Z",
  "networkType": "ethereum",
  "devdoc": {
    "kind": "dev",
    "methods": {
      "getCountIssued()": {
        "details": "Returns count of SBT issued by the caller (company)"
      },
      "getIssuedSBTCandidate()": {
        "details": "Returns all the SBTs issued to the caller."
      },
      "getPendingSBTCandidate()": {
        "details": "Returns the Pending SBTs of the caller [Candidate]"
      },
      "getPendingSBTCompany()": {
        "details": "Returns the Pending SBTs of the caller [Company]"
      },
      "registerCompany()": {
        "details": "Registers the caller with the contract. Requirements: - the caller (company) must not be already registered."
      },
      "rejectRequest(address)": {
        "details": "Removes the request from the pending requests list."
      },
      "requestSBT(address,bytes)": {
        "details": "Requests a SBT from `company` for the caller's account. Returns a boolean value indicating whether the operation succeeded. Requirements: - `company` cannot be the zero address. - `company` must be registerd with contract. - the caller must not have requested the same `company` before."
      },
      "respondToRequest(address,(uint256,string,uint8,uint8,uint16,uint8,uint8),bool)": {
        "details": "Takes an address, credentialId, response and responds to the SBT Request"
      },
      "verifySBT(address,address,uint256)": {
        "details": "Returns a boolean value indicating whether `company` has issued a SBT with `id` to the `candidate` or not. Requirements: - `id` cannot be greater than the total SBT issued by the `company`"
      }
    },
    "stateVariables": {
      "countIssued": {
        "details": "Tracks the count of a company's issued SBT  - 0 means company is not registered. - 1 means company is registerd. - n means company has issued n-1 SBT. "
      }
    },
    "version": 1
  },
  "userdoc": {
    "kind": "user",
    "methods": {},
    "version": 1
  }
}