{
  "contractName": "SBT",
  "abi": [
    {
      "inputs": [],
      "name": "registerCompany",
      "outputs": [
        {
          "internalType": "bool",
          "name": "",
          "type": "bool"
        }
      ],
      "stateMutability": "nonpayable",
      "type": "function"
    },
    {
      "inputs": [
        {
          "internalType": "address",
          "name": "company",
          "type": "address"
        },
        {
          "internalType": "bytes",
          "name": "credentialId",
          "type": "bytes"
        }
      ],
      "name": "requestSBT",
      "outputs": [
        {
          "internalType": "bool",
          "name": "",
          "type": "bool"
        }
      ],
      "stateMutability": "nonpayable",
      "type": "function"
    },
    {
      "inputs": [],
      "name": "getCountIssued",
      "outputs": [
        {
          "internalType": "uint256",
          "name": "",
          "type": "uint256"
        }
      ],
      "stateMutability": "view",
      "type": "function",
      "constant": true
    }
  ],
  "bytecode": "0x608060405234801561001057600080fd5b50610947806100206000396000f3fe608060405234801561001057600080fd5b50600436106100415760003560e01c80637cad110714610046578063bab1638114610064578063de7a7f4314610082575b600080fd5b61004e6100b2565b60405161005b91906104ac565b60405180910390f35b61006c61014f565b60405161007991906104e0565b60405180910390f35b61009c600480360381019061009791906106b3565b610196565b6040516100a991906104ac565b60405180910390f35b600080600160003373ffffffffffffffffffffffffffffffffffffffff1673ffffffffffffffffffffffffffffffffffffffff1681526020019081526020016000205414610103576000905061014c565b60018060003373ffffffffffffffffffffffffffffffffffffffff1673ffffffffffffffffffffffffffffffffffffffff16815260200190815260200160002081905550600190505b90565b6000600160003373ffffffffffffffffffffffffffffffffffffffff1673ffffffffffffffffffffffffffffffffffffffff16815260200190815260200160002054905090565b60008073ffffffffffffffffffffffffffffffffffffffff168373ffffffffffffffffffffffffffffffffffffffff161415610207576040517f08c379a00000000000000000000000000000000000000000000000000000000081526004016101fe90610792565b60405180910390fd5b6000600160008573ffffffffffffffffffffffffffffffffffffffff1673ffffffffffffffffffffffffffffffffffffffff16815260200190815260200160002054141561028a576040517f08c379a0000000000000000000000000000000000000000000000000000000008152600401610281906107fe565b60405180910390fd5b60008060008573ffffffffffffffffffffffffffffffffffffffff1673ffffffffffffffffffffffffffffffffffffffff16815260200190815260200160002060003373ffffffffffffffffffffffffffffffffffffffff1673ffffffffffffffffffffffffffffffffffffffff16815260200190815260200160002080546103129061084d565b905014610354576040517f08c379a000000000000000000000000000000000000000000000000000000000815260040161034b906108f1565b60405180910390fd5b816000808573ffffffffffffffffffffffffffffffffffffffff1673ffffffffffffffffffffffffffffffffffffffff16815260200190815260200160002060003373ffffffffffffffffffffffffffffffffffffffff1673ffffffffffffffffffffffffffffffffffffffff16815260200190815260200160002090805190602001906103e39291906103ee565b506001905092915050565b8280546103fa9061084d565b90600052602060002090601f01602090048101928261041c5760008555610463565b82601f1061043557805160ff1916838001178555610463565b82800160010185558215610463579182015b82811115610462578251825591602001919060010190610447565b5b5090506104709190610474565b5090565b5b8082111561048d576000816000905550600101610475565b5090565b60008115159050919050565b6104a681610491565b82525050565b60006020820190506104c1600083018461049d565b92915050565b6000819050919050565b6104da816104c7565b82525050565b60006020820190506104f560008301846104d1565b92915050565b6000604051905090565b600080fd5b600080fd5b600073ffffffffffffffffffffffffffffffffffffffff82169050919050565b600061053a8261050f565b9050919050565b61054a8161052f565b811461055557600080fd5b50565b60008135905061056781610541565b92915050565b600080fd5b600080fd5b6000601f19601f8301169050919050565b7f4e487b7100000000000000000000000000000000000000000000000000000000600052604160045260246000fd5b6105c082610577565b810181811067ffffffffffffffff821117156105df576105de610588565b5b80604052505050565b60006105f26104fb565b90506105fe82826105b7565b919050565b600067ffffffffffffffff82111561061e5761061d610588565b5b61062782610577565b9050602081019050919050565b82818337600083830152505050565b600061065661065184610603565b6105e8565b90508281526020810184848401111561067257610671610572565b5b61067d848285610634565b509392505050565b600082601f83011261069a5761069961056d565b5b81356106aa848260208601610643565b91505092915050565b600080604083850312156106ca576106c9610505565b5b60006106d885828601610558565b925050602083013567ffffffffffffffff8111156106f9576106f861050a565b5b61070585828601610685565b9150509250929050565b600082825260208201905092915050565b7f5342543a20636f6d70616e7920616464726573732063616e6e6f74206265207460008201527f6865207a65726f20616464726573730000000000000000000000000000000000602082015250565b600061077c602f8361070f565b915061078782610720565b604082019050919050565b600060208201905081810360008301526107ab8161076f565b9050919050565b7f5342543a20636f6d70616e79206e6f7420726567697374657264000000000000600082015250565b60006107e8601a8361070f565b91506107f3826107b2565b602082019050919050565b60006020820190508181036000830152610817816107db565b9050919050565b7f4e487b7100000000000000000000000000000000000000000000000000000000600052602260045260246000fd5b6000600282049050600182168061086557607f821691505b602082108114156108795761087861081e565b5b50919050565b7f5342543a207265717565737420697320616c726561647920696e2070656e646960008201527f6e67206c69737400000000000000000000000000000000000000000000000000602082015250565b60006108db60278361070f565b91506108e68261087f565b604082019050919050565b6000602082019050818103600083015261090a816108ce565b905091905056fea2646970667358221220883bdae2fcdb6b3cf79019a75ef986328df30d98ce7c7d0c5dd03cf7b65644f664736f6c634300080a0033",
  "immutableReferences": {},
  "source": "// SPDX-License-Identifier: MIT\r\npragma solidity ^0.8.0;\r\n\r\ncontract SBT {\r\n\r\n    struct SkillSBT {\r\n        uint id;\r\n        string name;\r\n        uint8 issueDay;\r\n        uint8 issueMonth;\r\n        uint16 issueYear;\r\n        uint8 difficulty;\r\n        uint8 testType;\r\n    }\r\n\r\n    mapping(address => mapping(address => bytes)) private pendingSBTRequests;\r\n\r\n    /** \r\n     * @dev Tracks the count of a company's issued SBT\r\n     * \r\n     * - 0 means company is not registered.\r\n     * - 1 means company is registerd.\r\n     * - n means company has issued n-1 SBT. \r\n    */\r\n    mapping (address => uint) private countIssued;\r\n\r\n    /** \r\n     * @dev Registers the caller with the contract.\r\n     *\r\n     * Requirements:\r\n     *\r\n     * - the caller (company) must not be already registered.\r\n     */\r\n    function registerCompany() external returns (bool) {\r\n        if (countIssued[msg.sender] != 0) {\r\n            return false;\r\n        }\r\n        countIssued[msg.sender] = 1;\r\n        return true;\r\n    }\r\n\r\n    /**\r\n     * @dev Requests a SBT from `company` for the caller's account.\r\n     *\r\n     * Returns a boolean value indicating whether the operation succeeded.\r\n     *\r\n     * Requirements:\r\n     *\r\n     * - `company` cannot be the zero address.\r\n     * - `company` must be registerd with contract.\r\n     * - the caller must not have requested the same `company` before.\r\n     */\r\n    function requestSBT(address company, bytes memory credentialId) external returns (bool) {\r\n        require(company != address(0), \"SBT: company address cannot be the zero address\");\r\n        require(countIssued[company] != 0, \"SBT: company not registerd\");\r\n\r\n        require (pendingSBTRequests[company][msg.sender].length == 0, \"SBT: request is already in pending list\");\r\n\r\n        pendingSBTRequests[company][msg.sender] = credentialId;\r\n        return true;\r\n    }\r\n\r\n    /** \r\n    * @dev Returns count of SBT issued by the caller (company)\r\n    */\r\n    function getCountIssued() external view returns (uint) {\r\n        return countIssued[msg.sender];\r\n    }\r\n}",
  "sourcePath": "C:\\My Data\\Sem0\\React Apps\\soul-xp\\client\\src\\truffle\\contracts\\SBT.sol",
  "compiler": {
    "name": "solc",
    "version": "0.8.10+commit.fc410830.Emscripten.clang"
  },
  "schemaVersion": "3.4.3",
  "updatedAt": "2022-07-22T16:04:20.999Z",
  "networkType": "ethereum",
  "devdoc": {
    "kind": "dev",
    "methods": {
      "getCountIssued()": {
        "details": "Returns count of SBT issued by the caller (company)"
      },
      "registerCompany()": {
        "details": "Registers the caller with the contract. Requirements: - the caller (company) must not be already registered."
      },
      "requestSBT(address,bytes)": {
        "details": "Requests a SBT from `company` for the caller's account. Returns a boolean value indicating whether the operation succeeded. Requirements: - `company` cannot be the zero address. - `company` must be registerd with contract. - the caller must not have requested the same `company` before."
      }
    },
    "stateVariables": {
      "countIssued": {
        "details": "Tracks the count of a company's issued SBT  - 0 means company is not registered. - 1 means company is registerd. - n means company has issued n-1 SBT. "
      }
    },
    "version": 1
  },
  "userdoc": {
    "kind": "user",
    "methods": {},
    "version": 1
  }
}