{
  "contractName": "SBT",
  "abi": [
    {
      "inputs": [],
      "name": "registerCompany",
      "outputs": [
        {
          "internalType": "bool",
          "name": "",
          "type": "bool"
        }
      ],
      "stateMutability": "nonpayable",
      "type": "function"
    },
    {
      "inputs": [
        {
          "internalType": "address",
          "name": "company",
          "type": "address"
        },
        {
          "internalType": "bytes",
          "name": "credentialId",
          "type": "bytes"
        }
      ],
      "name": "requestSBT",
      "outputs": [
        {
          "internalType": "bool",
          "name": "",
          "type": "bool"
        }
      ],
      "stateMutability": "nonpayable",
      "type": "function"
    },
    {
      "inputs": [],
      "name": "getCountIssued",
      "outputs": [
        {
          "internalType": "uint256",
          "name": "",
          "type": "uint256"
        }
      ],
      "stateMutability": "view",
      "type": "function",
      "constant": true
    },
    {
      "inputs": [],
      "name": "getPendingSBTCandidate",
      "outputs": [
        {
          "internalType": "bytes[]",
          "name": "",
          "type": "bytes[]"
        },
        {
          "internalType": "address[]",
          "name": "",
          "type": "address[]"
        }
      ],
      "stateMutability": "view",
      "type": "function",
      "constant": true
    },
    {
      "inputs": [],
      "name": "getPendingSBTCompany",
      "outputs": [
        {
          "internalType": "bytes[]",
          "name": "",
          "type": "bytes[]"
        },
        {
          "internalType": "address[]",
          "name": "",
          "type": "address[]"
        }
      ],
      "stateMutability": "view",
      "type": "function",
      "constant": true
    },
    {
      "inputs": [
        {
          "internalType": "address",
          "name": "candidate",
          "type": "address"
        },
        {
          "components": [
            {
              "internalType": "uint256",
              "name": "id",
              "type": "uint256"
            },
            {
              "internalType": "string",
              "name": "name",
              "type": "string"
            },
            {
              "internalType": "uint8",
              "name": "issueDay",
              "type": "uint8"
            },
            {
              "internalType": "uint8",
              "name": "issueMonth",
              "type": "uint8"
            },
            {
              "internalType": "uint16",
              "name": "issueYear",
              "type": "uint16"
            },
            {
              "internalType": "uint8",
              "name": "difficulty",
              "type": "uint8"
            },
            {
              "internalType": "uint8",
              "name": "testType",
              "type": "uint8"
            }
          ],
          "internalType": "struct SBT.SkillSBT",
          "name": "skillSBT",
          "type": "tuple"
        },
        {
          "internalType": "bool",
          "name": "response",
          "type": "bool"
        }
      ],
      "name": "respondToRequest",
      "outputs": [],
      "stateMutability": "nonpayable",
      "type": "function"
    },
    {
      "inputs": [
        {
          "internalType": "address",
          "name": "candidate",
          "type": "address"
        }
      ],
      "name": "rejectRequest",
      "outputs": [],
      "stateMutability": "nonpayable",
      "type": "function"
    },
    {
      "inputs": [],
      "name": "getIssuedSBTCandidate",
      "outputs": [
        {
          "components": [
            {
              "internalType": "uint256",
              "name": "id",
              "type": "uint256"
            },
            {
              "internalType": "string",
              "name": "name",
              "type": "string"
            },
            {
              "internalType": "uint8",
              "name": "issueDay",
              "type": "uint8"
            },
            {
              "internalType": "uint8",
              "name": "issueMonth",
              "type": "uint8"
            },
            {
              "internalType": "uint16",
              "name": "issueYear",
              "type": "uint16"
            },
            {
              "internalType": "uint8",
              "name": "difficulty",
              "type": "uint8"
            },
            {
              "internalType": "uint8",
              "name": "testType",
              "type": "uint8"
            }
          ],
          "internalType": "struct SBT.SkillSBT[]",
          "name": "",
          "type": "tuple[]"
        }
      ],
      "stateMutability": "view",
      "type": "function",
      "constant": true
    }
  ],
  "bytecode": "0x608060405234801561001057600080fd5b50612743806100206000396000f3fe608060405234801561001057600080fd5b50600436106100885760003560e01c8063bab163811161005b578063bab1638114610104578063ca07b4b414610122578063d505b6cb1461013e578063de7a7f431461015d57610088565b806356a0c23f1461008d57806374350d86146100ab5780637837c3e7146100ca5780637cad1107146100e6575b600080fd5b61009561018d565b6040516100a29190611c17565b60405180910390f35b6100b3610359565b6040516100c1929190611e40565b60405180910390f35b6100e460048036038101906100df9190612182565b610683565b005b6100ee610ab7565b6040516100fb9190612200565b60405180910390f35b61010c610b55565b604051610119919061222a565b60405180910390f35b61013c60048036038101906101379190612245565b610b9c565b005b6101466111a3565b604051610154929190611e40565b60405180910390f35b61017760048036038101906101729190612313565b6114cd565b6040516101849190612200565b60405180910390f35b6060600460003373ffffffffffffffffffffffffffffffffffffffff1673ffffffffffffffffffffffffffffffffffffffff168152602001908152602001600020805480602002602001604051908101604052809291908181526020016000905b8282101561035057838290600052602060002090600302016040518060e00160405290816000820154815260200160018201805461022b9061239e565b80601f01602080910402602001604051908101604052809291908181526020018280546102579061239e565b80156102a45780601f10610279576101008083540402835291602001916102a4565b820191906000526020600020905b81548152906001019060200180831161028757829003601f168201915b505050505081526020016002820160009054906101000a900460ff1660ff1660ff1681526020016002820160019054906101000a900460ff1660ff1660ff1681526020016002820160029054906101000a900461ffff1661ffff1661ffff1681526020016002820160049054906101000a900460ff1660ff1660ff1681526020016002820160059054906101000a900460ff1660ff1660ff1681525050815260200190600101906101ee565b50505050905090565b6060806000600260003373ffffffffffffffffffffffffffffffffffffffff1673ffffffffffffffffffffffffffffffffffffffff16815260200190815260200160002080549050905060008167ffffffffffffffff8111156103bf576103be611ebc565b5b6040519080825280602002602001820160405280156103f257816020015b60608152602001906001900390816103dd5790505b50905060005b828110156105b0576000803373ffffffffffffffffffffffffffffffffffffffff1673ffffffffffffffffffffffffffffffffffffffff1681526020019081526020016000206000600260003373ffffffffffffffffffffffffffffffffffffffff1673ffffffffffffffffffffffffffffffffffffffff1681526020019081526020016000208381548110610491576104906123d0565b5b9060005260206000200160009054906101000a900473ffffffffffffffffffffffffffffffffffffffff1673ffffffffffffffffffffffffffffffffffffffff1673ffffffffffffffffffffffffffffffffffffffff16815260200190815260200160002080546105019061239e565b80601f016020809104026020016040519081016040528092919081815260200182805461052d9061239e565b801561057a5780601f1061054f5761010080835404028352916020019161057a565b820191906000526020600020905b81548152906001019060200180831161055d57829003601f168201915b5050505050828281518110610592576105916123d0565b5b602002602001018190525080806105a89061242e565b9150506103f8565b5080600260003373ffffffffffffffffffffffffffffffffffffffff1673ffffffffffffffffffffffffffffffffffffffff1681526020019081526020016000208080548060200260200160405190810160405280929190818152602001828054801561067257602002820191906000526020600020905b8160009054906101000a900473ffffffffffffffffffffffffffffffffffffffff1673ffffffffffffffffffffffffffffffffffffffff1681526020019060010190808311610628575b505050505090509350935050509091565b60008060003373ffffffffffffffffffffffffffffffffffffffff1673ffffffffffffffffffffffffffffffffffffffff16815260200190815260200160002060008573ffffffffffffffffffffffffffffffffffffffff1673ffffffffffffffffffffffffffffffffffffffff168152602001908152602001600020805461070b9061239e565b9050141561074e576040517f08c379a0000000000000000000000000000000000000000000000000000000008152600401610745906124fa565b60405180910390fd5b600115158115151415610aa957600560003373ffffffffffffffffffffffffffffffffffffffff1673ffffffffffffffffffffffffffffffffffffffff16815260200190815260200160002054826000018181525050600560003373ffffffffffffffffffffffffffffffffffffffff1673ffffffffffffffffffffffffffffffffffffffff16815260200190815260200160002060008154809291906107f49061242e565b9190505550600460008473ffffffffffffffffffffffffffffffffffffffff1673ffffffffffffffffffffffffffffffffffffffff168152602001908152602001600020829080600181540180825580915050600190039060005260206000209060030201600090919091909150600082015181600001556020820151816001019080519060200190610888929190611865565b5060408201518160020160006101000a81548160ff021916908360ff16021790555060608201518160020160016101000a81548160ff021916908360ff16021790555060808201518160020160026101000a81548161ffff021916908361ffff16021790555060a08201518160020160046101000a81548160ff021916908360ff16021790555060c08201518160020160056101000a81548160ff021916908360ff1602179055505050600360003373ffffffffffffffffffffffffffffffffffffffff1673ffffffffffffffffffffffffffffffffffffffff16815260200190815260200160002060008473ffffffffffffffffffffffffffffffffffffffff1673ffffffffffffffffffffffffffffffffffffffff1681526020019081526020016000208290806001815401808255809150506001900390600052602060002090600302016000909190919091506000820151816000015560208201518160010190805190602001906109fe929190611865565b5060408201518160020160006101000a81548160ff021916908360ff16021790555060608201518160020160016101000a81548160ff021916908360ff16021790555060808201518160020160026101000a81548161ffff021916908361ffff16021790555060a08201518160020160046101000a81548160ff021916908360ff16021790555060c08201518160020160056101000a81548160ff021916908360ff16021790555050505b610ab283610b9c565b505050565b600080600560003373ffffffffffffffffffffffffffffffffffffffff1673ffffffffffffffffffffffffffffffffffffffff1681526020019081526020016000205414610b085760009050610b52565b6001600560003373ffffffffffffffffffffffffffffffffffffffff1673ffffffffffffffffffffffffffffffffffffffff16815260200190815260200160002081905550600190505b90565b6000600560003373ffffffffffffffffffffffffffffffffffffffff1673ffffffffffffffffffffffffffffffffffffffff16815260200190815260200160002054905090565b6000803373ffffffffffffffffffffffffffffffffffffffff1673ffffffffffffffffffffffffffffffffffffffff16815260200190815260200160002060008273ffffffffffffffffffffffffffffffffffffffff1673ffffffffffffffffffffffffffffffffffffffff1681526020019081526020016000206000610c2391906118eb565b6000600160008373ffffffffffffffffffffffffffffffffffffffff1673ffffffffffffffffffffffffffffffffffffffff16815260200190815260200160002080549050905060005b81811015610ee1573373ffffffffffffffffffffffffffffffffffffffff16600160008573ffffffffffffffffffffffffffffffffffffffff1673ffffffffffffffffffffffffffffffffffffffff1681526020019081526020016000208281548110610cdd57610cdc6123d0565b5b9060005260206000200160009054906101000a900473ffffffffffffffffffffffffffffffffffffffff1673ffffffffffffffffffffffffffffffffffffffff161415610ece57600160008473ffffffffffffffffffffffffffffffffffffffff1673ffffffffffffffffffffffffffffffffffffffff168152602001908152602001600020600183610d70919061251a565b81548110610d8157610d806123d0565b5b9060005260206000200160009054906101000a900473ffffffffffffffffffffffffffffffffffffffff16600160008573ffffffffffffffffffffffffffffffffffffffff1673ffffffffffffffffffffffffffffffffffffffff1681526020019081526020016000208281548110610dfd57610dfc6123d0565b5b9060005260206000200160006101000a81548173ffffffffffffffffffffffffffffffffffffffff021916908373ffffffffffffffffffffffffffffffffffffffff160217905550600160008473ffffffffffffffffffffffffffffffffffffffff1673ffffffffffffffffffffffffffffffffffffffff168152602001908152602001600020805480610e9457610e9361254e565b5b6001900381819060005260206000200160006101000a81549073ffffffffffffffffffffffffffffffffffffffff02191690559055610ee1565b8080610ed99061242e565b915050610c6d565b50600260003373ffffffffffffffffffffffffffffffffffffffff1673ffffffffffffffffffffffffffffffffffffffff16815260200190815260200160002080549050905060005b8181101561119e578273ffffffffffffffffffffffffffffffffffffffff16600260003373ffffffffffffffffffffffffffffffffffffffff1673ffffffffffffffffffffffffffffffffffffffff1681526020019081526020016000208281548110610f9a57610f996123d0565b5b9060005260206000200160009054906101000a900473ffffffffffffffffffffffffffffffffffffffff1673ffffffffffffffffffffffffffffffffffffffff16141561118b57600260003373ffffffffffffffffffffffffffffffffffffffff1673ffffffffffffffffffffffffffffffffffffffff16815260200190815260200160002060018361102d919061251a565b8154811061103e5761103d6123d0565b5b9060005260206000200160009054906101000a900473ffffffffffffffffffffffffffffffffffffffff16600260003373ffffffffffffffffffffffffffffffffffffffff1673ffffffffffffffffffffffffffffffffffffffff16815260200190815260200160002082815481106110ba576110b96123d0565b5b9060005260206000200160006101000a81548173ffffffffffffffffffffffffffffffffffffffff021916908373ffffffffffffffffffffffffffffffffffffffff160217905550600260003373ffffffffffffffffffffffffffffffffffffffff1673ffffffffffffffffffffffffffffffffffffffff1681526020019081526020016000208054806111515761115061254e565b5b6001900381819060005260206000200160006101000a81549073ffffffffffffffffffffffffffffffffffffffff0219169055905561119e565b80806111969061242e565b915050610f2a565b505050565b6060806000600160003373ffffffffffffffffffffffffffffffffffffffff1673ffffffffffffffffffffffffffffffffffffffff16815260200190815260200160002080549050905060008167ffffffffffffffff81111561120957611208611ebc565b5b60405190808252806020026020018201604052801561123c57816020015b60608152602001906001900390816112275790505b50905060005b828110156113fa57600080600160003373ffffffffffffffffffffffffffffffffffffffff1673ffffffffffffffffffffffffffffffffffffffff168152602001908152602001600020838154811061129e5761129d6123d0565b5b9060005260206000200160009054906101000a900473ffffffffffffffffffffffffffffffffffffffff1673ffffffffffffffffffffffffffffffffffffffff1673ffffffffffffffffffffffffffffffffffffffff16815260200190815260200160002060003373ffffffffffffffffffffffffffffffffffffffff1673ffffffffffffffffffffffffffffffffffffffff168152602001908152602001600020805461134b9061239e565b80601f01602080910402602001604051908101604052809291908181526020018280546113779061239e565b80156113c45780601f10611399576101008083540402835291602001916113c4565b820191906000526020600020905b8154815290600101906020018083116113a757829003601f168201915b50505050508282815181106113dc576113db6123d0565b5b602002602001018190525080806113f29061242e565b915050611242565b5080600160003373ffffffffffffffffffffffffffffffffffffffff1673ffffffffffffffffffffffffffffffffffffffff168152602001908152602001600020808054806020026020016040519081016040528092919081815260200182805480156114bc57602002820191906000526020600020905b8160009054906101000a900473ffffffffffffffffffffffffffffffffffffffff1673ffffffffffffffffffffffffffffffffffffffff1681526020019060010190808311611472575b505050505090509350935050509091565b60008073ffffffffffffffffffffffffffffffffffffffff168373ffffffffffffffffffffffffffffffffffffffff16141561153e576040517f08c379a0000000000000000000000000000000000000000000000000000000008152600401611535906125ef565b60405180910390fd5b6000600560008573ffffffffffffffffffffffffffffffffffffffff1673ffffffffffffffffffffffffffffffffffffffff1681526020019081526020016000205414156115c1576040517f08c379a00000000000000000000000000000000000000000000000000000000081526004016115b89061265b565b60405180910390fd5b60008060008573ffffffffffffffffffffffffffffffffffffffff1673ffffffffffffffffffffffffffffffffffffffff16815260200190815260200160002060003373ffffffffffffffffffffffffffffffffffffffff1673ffffffffffffffffffffffffffffffffffffffff16815260200190815260200160002080546116499061239e565b90501461168b576040517f08c379a0000000000000000000000000000000000000000000000000000000008152600401611682906126ed565b60405180910390fd5b816000808573ffffffffffffffffffffffffffffffffffffffff1673ffffffffffffffffffffffffffffffffffffffff16815260200190815260200160002060003373ffffffffffffffffffffffffffffffffffffffff1673ffffffffffffffffffffffffffffffffffffffff168152602001908152602001600020908051906020019061171a92919061192b565b50600160003373ffffffffffffffffffffffffffffffffffffffff1673ffffffffffffffffffffffffffffffffffffffff168152602001908152602001600020839080600181540180825580915050600190039060005260206000200160009091909190916101000a81548173ffffffffffffffffffffffffffffffffffffffff021916908373ffffffffffffffffffffffffffffffffffffffff160217905550600260008473ffffffffffffffffffffffffffffffffffffffff1673ffffffffffffffffffffffffffffffffffffffff168152602001908152602001600020339080600181540180825580915050600190039060005260206000200160009091909190916101000a81548173ffffffffffffffffffffffffffffffffffffffff021916908373ffffffffffffffffffffffffffffffffffffffff1602179055506001905092915050565b8280546118719061239e565b90600052602060002090601f01602090048101928261189357600085556118da565b82601f106118ac57805160ff19168380011785556118da565b828001600101855582156118da579182015b828111156118d95782518255916020019190600101906118be565b5b5090506118e791906119b1565b5090565b5080546118f79061239e565b6000825580601f106119095750611928565b601f01602090049060005260206000209081019061192791906119b1565b5b50565b8280546119379061239e565b90600052602060002090601f01602090048101928261195957600085556119a0565b82601f1061197257805160ff19168380011785556119a0565b828001600101855582156119a0579182015b8281111561199f578251825591602001919060010190611984565b5b5090506119ad91906119b1565b5090565b5b808211156119ca5760008160009055506001016119b2565b5090565b600081519050919050565b600082825260208201905092915050565b6000819050602082019050919050565b6000819050919050565b611a0d816119fa565b82525050565b600081519050919050565b600082825260208201905092915050565b60005b83811015611a4d578082015181840152602081019050611a32565b83811115611a5c576000848401525b50505050565b6000601f19601f8301169050919050565b6000611a7e82611a13565b611a888185611a1e565b9350611a98818560208601611a2f565b611aa181611a62565b840191505092915050565b600060ff82169050919050565b611ac281611aac565b82525050565b600061ffff82169050919050565b611adf81611ac8565b82525050565b600060e083016000830151611afd6000860182611a04565b5060208301518482036020860152611b158282611a73565b9150506040830151611b2a6040860182611ab9565b506060830151611b3d6060860182611ab9565b506080830151611b506080860182611ad6565b5060a0830151611b6360a0860182611ab9565b5060c0830151611b7660c0860182611ab9565b508091505092915050565b6000611b8d8383611ae5565b905092915050565b6000602082019050919050565b6000611bad826119ce565b611bb781856119d9565b935083602082028501611bc9856119ea565b8060005b85811015611c055784840389528151611be68582611b81565b9450611bf183611b95565b925060208a01995050600181019050611bcd565b50829750879550505050505092915050565b60006020820190508181036000830152611c318184611ba2565b905092915050565b600081519050919050565b600082825260208201905092915050565b6000819050602082019050919050565b600081519050919050565b600082825260208201905092915050565b6000611c8c82611c65565b611c968185611c70565b9350611ca6818560208601611a2f565b611caf81611a62565b840191505092915050565b6000611cc68383611c81565b905092915050565b6000602082019050919050565b6000611ce682611c39565b611cf08185611c44565b935083602082028501611d0285611c55565b8060005b85811015611d3e5784840389528151611d1f8582611cba565b9450611d2a83611cce565b925060208a01995050600181019050611d06565b50829750879550505050505092915050565b600081519050919050565b600082825260208201905092915050565b6000819050602082019050919050565b600073ffffffffffffffffffffffffffffffffffffffff82169050919050565b6000611da782611d7c565b9050919050565b611db781611d9c565b82525050565b6000611dc98383611dae565b60208301905092915050565b6000602082019050919050565b6000611ded82611d50565b611df78185611d5b565b9350611e0283611d6c565b8060005b83811015611e33578151611e1a8882611dbd565b9750611e2583611dd5565b925050600181019050611e06565b5085935050505092915050565b60006040820190508181036000830152611e5a8185611cdb565b90508181036020830152611e6e8184611de2565b90509392505050565b6000604051905090565b600080fd5b600080fd5b611e9481611d9c565b8114611e9f57600080fd5b50565b600081359050611eb181611e8b565b92915050565b600080fd5b7f4e487b7100000000000000000000000000000000000000000000000000000000600052604160045260246000fd5b611ef482611a62565b810181811067ffffffffffffffff82111715611f1357611f12611ebc565b5b80604052505050565b6000611f26611e77565b9050611f328282611eeb565b919050565b600080fd5b611f45816119fa565b8114611f5057600080fd5b50565b600081359050611f6281611f3c565b92915050565b600080fd5b600080fd5b600067ffffffffffffffff821115611f8d57611f8c611ebc565b5b611f9682611a62565b9050602081019050919050565b82818337600083830152505050565b6000611fc5611fc084611f72565b611f1c565b905082815260208101848484011115611fe157611fe0611f6d565b5b611fec848285611fa3565b509392505050565b600082601f83011261200957612008611f68565b5b8135612019848260208601611fb2565b91505092915050565b61202b81611aac565b811461203657600080fd5b50565b60008135905061204881612022565b92915050565b61205781611ac8565b811461206257600080fd5b50565b6000813590506120748161204e565b92915050565b600060e082840312156120905761208f611eb7565b5b61209a60e0611f1c565b905060006120aa84828501611f53565b600083015250602082013567ffffffffffffffff8111156120ce576120cd611f37565b5b6120da84828501611ff4565b60208301525060406120ee84828501612039565b604083015250606061210284828501612039565b606083015250608061211684828501612065565b60808301525060a061212a84828501612039565b60a08301525060c061213e84828501612039565b60c08301525092915050565b60008115159050919050565b61215f8161214a565b811461216a57600080fd5b50565b60008135905061217c81612156565b92915050565b60008060006060848603121561219b5761219a611e81565b5b60006121a986828701611ea2565b935050602084013567ffffffffffffffff8111156121ca576121c9611e86565b5b6121d68682870161207a565b92505060406121e78682870161216d565b9150509250925092565b6121fa8161214a565b82525050565b600060208201905061221560008301846121f1565b92915050565b612224816119fa565b82525050565b600060208201905061223f600083018461221b565b92915050565b60006020828403121561225b5761225a611e81565b5b600061226984828501611ea2565b91505092915050565b600067ffffffffffffffff82111561228d5761228c611ebc565b5b61229682611a62565b9050602081019050919050565b60006122b66122b184612272565b611f1c565b9050828152602081018484840111156122d2576122d1611f6d565b5b6122dd848285611fa3565b509392505050565b600082601f8301126122fa576122f9611f68565b5b813561230a8482602086016122a3565b91505092915050565b6000806040838503121561232a57612329611e81565b5b600061233885828601611ea2565b925050602083013567ffffffffffffffff81111561235957612358611e86565b5b612365858286016122e5565b9150509250929050565b7f4e487b7100000000000000000000000000000000000000000000000000000000600052602260045260246000fd5b600060028204905060018216806123b657607f821691505b602082108114156123ca576123c961236f565b5b50919050565b7f4e487b7100000000000000000000000000000000000000000000000000000000600052603260045260246000fd5b7f4e487b7100000000000000000000000000000000000000000000000000000000600052601160045260246000fd5b6000612439826119fa565b91507fffffffffffffffffffffffffffffffffffffffffffffffffffffffffffffffff82141561246c5761246b6123ff565b5b600182019050919050565b600082825260208201905092915050565b7f5342543a2043616e64696461746520686173206e6f742072657175657374207460008201527f6865205342540000000000000000000000000000000000000000000000000000602082015250565b60006124e4602683612477565b91506124ef82612488565b604082019050919050565b60006020820190508181036000830152612513816124d7565b9050919050565b6000612525826119fa565b9150612530836119fa565b925082821015612543576125426123ff565b5b828203905092915050565b7f4e487b7100000000000000000000000000000000000000000000000000000000600052603160045260246000fd5b7f5342543a20636f6d70616e7920616464726573732063616e6e6f74206265207460008201527f6865207a65726f20616464726573730000000000000000000000000000000000602082015250565b60006125d9602f83612477565b91506125e48261257d565b604082019050919050565b60006020820190508181036000830152612608816125cc565b9050919050565b7f5342543a20636f6d70616e79206e6f7420726567697374657264000000000000600082015250565b6000612645601a83612477565b91506126508261260f565b602082019050919050565b6000602082019050818103600083015261267481612638565b9050919050565b7f5342543a207265717565737420697320616c726561647920696e2070656e646960008201527f6e67206c69737400000000000000000000000000000000000000000000000000602082015250565b60006126d7602783612477565b91506126e28261267b565b604082019050919050565b60006020820190508181036000830152612706816126ca565b905091905056fea26469706673582212209b38cc3826a00994de1e8c8dcfecd3873c3002d5d1c8e16d7848a24d0ba4e7ef64736f6c634300080a0033",
  "immutableReferences": {},
  "source": "// SPDX-License-Identifier: MIT\r\npragma solidity ^0.8.0;\r\n\r\ncontract SBT {\r\n\r\n    struct SkillSBT {\r\n        uint id;\r\n        string name;\r\n        uint8 issueDay;\r\n        uint8 issueMonth;\r\n        uint16 issueYear;\r\n        uint8 difficulty;\r\n        uint8 testType;\r\n    }\r\n\r\n    mapping(address => mapping(address => bytes)) private pendingSBTRequests;\r\n    mapping(address => address[]) private pendingSBTCandidate;\r\n    mapping(address => address[]) private pendingSBTCompany;\r\n\r\n    mapping(address => mapping(address => SkillSBT[])) private issuedSBT;\r\n    mapping(address => SkillSBT[]) private issuedSBTCandidate;\r\n\r\n    /** \r\n     * @dev Tracks the count of a company's issued SBT\r\n     * \r\n     * - 0 means company is not registered.\r\n     * - 1 means company is registerd.\r\n     * - n means company has issued n-1 SBT. \r\n    */\r\n    mapping (address => uint) private countIssued;\r\n\r\n    /** \r\n     * @dev Registers the caller with the contract.\r\n     *\r\n     * Requirements:\r\n     *\r\n     * - the caller (company) must not be already registered.\r\n     */\r\n    function registerCompany() external returns (bool) {\r\n        if (countIssued[msg.sender] != 0) {\r\n            return false;\r\n        }\r\n        countIssued[msg.sender] = 1;\r\n        return true;\r\n    }\r\n\r\n    /**\r\n     * @dev Requests a SBT from `company` for the caller's account.\r\n     *\r\n     * Returns a boolean value indicating whether the operation succeeded.\r\n     *\r\n     * Requirements:\r\n     *\r\n     * - `company` cannot be the zero address.\r\n     * - `company` must be registerd with contract.\r\n     * - the caller must not have requested the same `company` before.\r\n     */\r\n    function requestSBT(address company, bytes memory credentialId) external returns (bool) {\r\n        require(company != address(0), \"SBT: company address cannot be the zero address\");\r\n        require(countIssued[company] != 0, \"SBT: company not registerd\");\r\n\r\n        require (pendingSBTRequests[company][msg.sender].length == 0, \"SBT: request is already in pending list\");\r\n\r\n        pendingSBTRequests[company][msg.sender] = credentialId;\r\n        pendingSBTCandidate[msg.sender].push(company);\r\n        pendingSBTCompany[company].push(msg.sender);\r\n        return true;\r\n    }\r\n\r\n    /** \r\n     * @dev Returns count of SBT issued by the caller (company)\r\n     */\r\n    function getCountIssued() external view returns (uint) {\r\n        return countIssued[msg.sender];\r\n    }\r\n\r\n    /**\r\n     * @dev Returns the Pending SBTs of the caller [Candidate]\r\n     */\r\n    function getPendingSBTCandidate() external view returns (bytes[] memory, address[] memory) {\r\n        uint length = pendingSBTCandidate[msg.sender].length;\r\n        bytes[] memory credentialIds = new bytes[](length);\r\n        for (uint i = 0; i < length; i++) {\r\n            credentialIds[i] = pendingSBTRequests[pendingSBTCandidate[msg.sender][i]][msg.sender];\r\n        }\r\n        return (credentialIds, pendingSBTCandidate[msg.sender]);\r\n    }\r\n\r\n    /**\r\n     * @dev Returns the Pending SBTs of the caller [Company]\r\n     */\r\n    function getPendingSBTCompany() external view returns (bytes[] memory, address[] memory) {\r\n        uint length = pendingSBTCompany[msg.sender].length;\r\n        bytes[] memory credentialIds = new bytes[](length);\r\n        for (uint i = 0; i < length; i++) {\r\n            credentialIds[i] = pendingSBTRequests[msg.sender][pendingSBTCompany[msg.sender][i]];\r\n        }\r\n        return (credentialIds, pendingSBTCompany[msg.sender]);\r\n    }\r\n\r\n    /**\r\n     * @dev Takes an address, credentialId, response and responds to the SBT\r\n     * Request\r\n     */\r\n    function respondToRequest(address candidate, SkillSBT memory skillSBT, bool response) external {\r\n        require(\r\n            pendingSBTRequests[msg.sender][candidate].length != 0,\r\n            \"SBT: Candidate has not request the SBT\"\r\n        );\r\n        \r\n        if (response == true) {\r\n            skillSBT.id = countIssued[msg.sender];\r\n            countIssued[msg.sender]++;\r\n            issuedSBTCandidate[candidate].push(skillSBT);\r\n            issuedSBT[msg.sender][candidate].push(skillSBT);\r\n        }\r\n        rejectRequest(candidate);\r\n    }\r\n\r\n\r\n    /**\r\n     * @dev Removes the request from the pending requests list.\r\n     */\r\n    function rejectRequest(address candidate) public {\r\n        delete pendingSBTRequests[msg.sender][candidate];\r\n        uint length = pendingSBTCandidate[candidate].length;\r\n        for (uint i = 0; i < length; i++) {\r\n            if (pendingSBTCandidate[candidate][i] == msg.sender) {\r\n                pendingSBTCandidate[candidate][i] = pendingSBTCandidate[candidate][length-1];\r\n                pendingSBTCandidate[candidate].pop();\r\n                break;\r\n            }\r\n        }\r\n\r\n        length = pendingSBTCompany[msg.sender].length;\r\n        for (uint i = 0; i < length; i++) {\r\n            if (pendingSBTCompany[msg.sender][i] == candidate) {\r\n                pendingSBTCompany[msg.sender][i] = pendingSBTCompany[msg.sender][length-1];\r\n                pendingSBTCompany[msg.sender].pop();\r\n                break;\r\n            }\r\n        }\r\n    }\r\n\r\n    /**\r\n     * @dev Returns all the SBTs issued to the caller.\r\n     */\r\n    function getIssuedSBTCandidate() external view returns (SkillSBT[] memory) {\r\n        return issuedSBTCandidate[msg.sender];\r\n    }\r\n}",
  "sourcePath": "C:\\My Data\\Sem0\\React Apps\\soul-xp\\client\\src\\truffle\\contracts\\SBT.sol",
  "compiler": {
    "name": "solc",
    "version": "0.8.10+commit.fc410830.Emscripten.clang"
  },
  "schemaVersion": "3.4.3",
  "updatedAt": "2022-07-25T20:22:05.565Z",
  "networkType": "ethereum",
  "devdoc": {
    "kind": "dev",
    "methods": {
      "getCountIssued()": {
        "details": "Returns count of SBT issued by the caller (company)"
      },
      "getIssuedSBTCandidate()": {
        "details": "Returns all the SBTs issued to the caller."
      },
      "getPendingSBTCandidate()": {
        "details": "Returns the Pending SBTs of the caller [Candidate]"
      },
      "getPendingSBTCompany()": {
        "details": "Returns the Pending SBTs of the caller [Company]"
      },
      "registerCompany()": {
        "details": "Registers the caller with the contract. Requirements: - the caller (company) must not be already registered."
      },
      "rejectRequest(address)": {
        "details": "Removes the request from the pending requests list."
      },
      "requestSBT(address,bytes)": {
        "details": "Requests a SBT from `company` for the caller's account. Returns a boolean value indicating whether the operation succeeded. Requirements: - `company` cannot be the zero address. - `company` must be registerd with contract. - the caller must not have requested the same `company` before."
      },
      "respondToRequest(address,(uint256,string,uint8,uint8,uint16,uint8,uint8),bool)": {
        "details": "Takes an address, credentialId, response and responds to the SBT Request"
      }
    },
    "stateVariables": {
      "countIssued": {
        "details": "Tracks the count of a company's issued SBT  - 0 means company is not registered. - 1 means company is registerd. - n means company has issued n-1 SBT. "
      }
    },
    "version": 1
  },
  "userdoc": {
    "kind": "user",
    "methods": {},
    "version": 1
  }
}