{
  "contractName": "SBT",
  "abi": [
    {
      "inputs": [],
      "name": "registerCompany",
      "outputs": [
        {
          "internalType": "bool",
          "name": "",
          "type": "bool"
        }
      ],
      "stateMutability": "nonpayable",
      "type": "function"
    },
    {
      "inputs": [
        {
          "internalType": "address",
          "name": "company",
          "type": "address"
        },
        {
          "internalType": "bytes",
          "name": "credentialId",
          "type": "bytes"
        }
      ],
      "name": "requestSBT",
      "outputs": [
        {
          "internalType": "bool",
          "name": "",
          "type": "bool"
        }
      ],
      "stateMutability": "nonpayable",
      "type": "function"
    },
    {
      "inputs": [],
      "name": "getCountIssued",
      "outputs": [
        {
          "internalType": "uint256",
          "name": "",
          "type": "uint256"
        }
      ],
      "stateMutability": "view",
      "type": "function",
      "constant": true
    },
    {
      "inputs": [],
      "name": "getPendingSBTCandidate",
      "outputs": [
        {
          "internalType": "bytes[]",
          "name": "",
          "type": "bytes[]"
        },
        {
          "internalType": "address[]",
          "name": "",
          "type": "address[]"
        }
      ],
      "stateMutability": "view",
      "type": "function",
      "constant": true
    },
    {
      "inputs": [],
      "name": "getPendingSBTCompany",
      "outputs": [
        {
          "internalType": "bytes[]",
          "name": "",
          "type": "bytes[]"
        },
        {
          "internalType": "address[]",
          "name": "",
          "type": "address[]"
        }
      ],
      "stateMutability": "view",
      "type": "function",
      "constant": true
    },
    {
      "inputs": [
        {
          "internalType": "address",
          "name": "candidate",
          "type": "address"
        },
        {
          "components": [
            {
              "internalType": "uint256",
              "name": "id",
              "type": "uint256"
            },
            {
              "internalType": "string",
              "name": "name",
              "type": "string"
            },
            {
              "internalType": "uint8",
              "name": "issueDay",
              "type": "uint8"
            },
            {
              "internalType": "uint8",
              "name": "issueMonth",
              "type": "uint8"
            },
            {
              "internalType": "uint16",
              "name": "issueYear",
              "type": "uint16"
            },
            {
              "internalType": "uint8",
              "name": "difficulty",
              "type": "uint8"
            },
            {
              "internalType": "uint8",
              "name": "testType",
              "type": "uint8"
            }
          ],
          "internalType": "struct SBT.SkillSBT",
          "name": "skillSBT",
          "type": "tuple"
        },
        {
          "internalType": "bool",
          "name": "response",
          "type": "bool"
        }
      ],
      "name": "respontToRequest",
      "outputs": [],
      "stateMutability": "nonpayable",
      "type": "function"
    },
    {
      "inputs": [
        {
          "internalType": "address",
          "name": "candidate",
          "type": "address"
        }
      ],
      "name": "rejectRequest",
      "outputs": [],
      "stateMutability": "nonpayable",
      "type": "function"
    }
  ],
  "bytecode": "0x608060405234801561001057600080fd5b50612213806100206000396000f3fe608060405234801561001057600080fd5b506004361061007d5760003560e01c8063bab163811161005b578063bab16381146100db578063ca07b4b4146100f9578063d505b6cb14610115578063de7a7f43146101345761007d565b806374350d86146100825780637cad1107146100a157806384bbf0fa146100bf575b600080fd5b61008a610164565b6040516100989291906118eb565b60405180910390f35b6100a961048e565b6040516100b6919061193d565b60405180910390f35b6100d960048036038101906100d49190611c7c565b61052c565b005b6100e3610827565b6040516100f09190611cfa565b60405180910390f35b610113600480360381019061010e9190611d15565b61086e565b005b61011d610e75565b60405161012b9291906118eb565b60405180910390f35b61014e60048036038101906101499190611de3565b61119f565b60405161015b919061193d565b60405180910390f35b6060806000600260003373ffffffffffffffffffffffffffffffffffffffff1673ffffffffffffffffffffffffffffffffffffffff16815260200190815260200160002080549050905060008167ffffffffffffffff8111156101ca576101c961199d565b5b6040519080825280602002602001820160405280156101fd57816020015b60608152602001906001900390816101e85790505b50905060005b828110156103bb576000803373ffffffffffffffffffffffffffffffffffffffff1673ffffffffffffffffffffffffffffffffffffffff1681526020019081526020016000206000600260003373ffffffffffffffffffffffffffffffffffffffff1673ffffffffffffffffffffffffffffffffffffffff168152602001908152602001600020838154811061029c5761029b611e3f565b5b9060005260206000200160009054906101000a900473ffffffffffffffffffffffffffffffffffffffff1673ffffffffffffffffffffffffffffffffffffffff1673ffffffffffffffffffffffffffffffffffffffff168152602001908152602001600020805461030c90611e9d565b80601f016020809104026020016040519081016040528092919081815260200182805461033890611e9d565b80156103855780601f1061035a57610100808354040283529160200191610385565b820191906000526020600020905b81548152906001019060200180831161036857829003601f168201915b505050505082828151811061039d5761039c611e3f565b5b602002602001018190525080806103b390611efe565b915050610203565b5080600260003373ffffffffffffffffffffffffffffffffffffffff1673ffffffffffffffffffffffffffffffffffffffff1681526020019081526020016000208080548060200260200160405190810160405280929190818152602001828054801561047d57602002820191906000526020600020905b8160009054906101000a900473ffffffffffffffffffffffffffffffffffffffff1673ffffffffffffffffffffffffffffffffffffffff1681526020019060010190808311610433575b505050505090509350935050509091565b600080600460003373ffffffffffffffffffffffffffffffffffffffff1673ffffffffffffffffffffffffffffffffffffffff16815260200190815260200160002054146104df5760009050610529565b6001600460003373ffffffffffffffffffffffffffffffffffffffff1673ffffffffffffffffffffffffffffffffffffffff16815260200190815260200160002081905550600190505b90565b60008060003373ffffffffffffffffffffffffffffffffffffffff1673ffffffffffffffffffffffffffffffffffffffff16815260200190815260200160002060008573ffffffffffffffffffffffffffffffffffffffff1673ffffffffffffffffffffffffffffffffffffffff16815260200190815260200160002080546105b490611e9d565b905014156105f7576040517f08c379a00000000000000000000000000000000000000000000000000000000081526004016105ee90611fca565b60405180910390fd5b60011515811515141561081957600460003373ffffffffffffffffffffffffffffffffffffffff1673ffffffffffffffffffffffffffffffffffffffff16815260200190815260200160002054826000018181525050600460003373ffffffffffffffffffffffffffffffffffffffff1673ffffffffffffffffffffffffffffffffffffffff168152602001908152602001600020600081548092919061069d90611efe565b9190505550600360003373ffffffffffffffffffffffffffffffffffffffff1673ffffffffffffffffffffffffffffffffffffffff16815260200190815260200160002060008473ffffffffffffffffffffffffffffffffffffffff1673ffffffffffffffffffffffffffffffffffffffff16815260200190815260200160002082908060018154018082558091505060019003906000526020600020906003020160009091909190915060008201518160000155602082015181600101908051906020019061076e929190611537565b5060408201518160020160006101000a81548160ff021916908360ff16021790555060608201518160020160016101000a81548160ff021916908360ff16021790555060808201518160020160026101000a81548161ffff021916908361ffff16021790555060a08201518160020160046101000a81548160ff021916908360ff16021790555060c08201518160020160056101000a81548160ff021916908360ff16021790555050505b6108228361086e565b505050565b6000600460003373ffffffffffffffffffffffffffffffffffffffff1673ffffffffffffffffffffffffffffffffffffffff16815260200190815260200160002054905090565b6000803373ffffffffffffffffffffffffffffffffffffffff1673ffffffffffffffffffffffffffffffffffffffff16815260200190815260200160002060008273ffffffffffffffffffffffffffffffffffffffff1673ffffffffffffffffffffffffffffffffffffffff16815260200190815260200160002060006108f591906115bd565b6000600160008373ffffffffffffffffffffffffffffffffffffffff1673ffffffffffffffffffffffffffffffffffffffff16815260200190815260200160002080549050905060005b81811015610bb3573373ffffffffffffffffffffffffffffffffffffffff16600160008573ffffffffffffffffffffffffffffffffffffffff1673ffffffffffffffffffffffffffffffffffffffff16815260200190815260200160002082815481106109af576109ae611e3f565b5b9060005260206000200160009054906101000a900473ffffffffffffffffffffffffffffffffffffffff1673ffffffffffffffffffffffffffffffffffffffff161415610ba057600160008473ffffffffffffffffffffffffffffffffffffffff1673ffffffffffffffffffffffffffffffffffffffff168152602001908152602001600020600183610a429190611fea565b81548110610a5357610a52611e3f565b5b9060005260206000200160009054906101000a900473ffffffffffffffffffffffffffffffffffffffff16600160008573ffffffffffffffffffffffffffffffffffffffff1673ffffffffffffffffffffffffffffffffffffffff1681526020019081526020016000208281548110610acf57610ace611e3f565b5b9060005260206000200160006101000a81548173ffffffffffffffffffffffffffffffffffffffff021916908373ffffffffffffffffffffffffffffffffffffffff160217905550600160008473ffffffffffffffffffffffffffffffffffffffff1673ffffffffffffffffffffffffffffffffffffffff168152602001908152602001600020805480610b6657610b6561201e565b5b6001900381819060005260206000200160006101000a81549073ffffffffffffffffffffffffffffffffffffffff02191690559055610bb3565b8080610bab90611efe565b91505061093f565b50600260003373ffffffffffffffffffffffffffffffffffffffff1673ffffffffffffffffffffffffffffffffffffffff16815260200190815260200160002080549050905060005b81811015610e70578273ffffffffffffffffffffffffffffffffffffffff16600260003373ffffffffffffffffffffffffffffffffffffffff1673ffffffffffffffffffffffffffffffffffffffff1681526020019081526020016000208281548110610c6c57610c6b611e3f565b5b9060005260206000200160009054906101000a900473ffffffffffffffffffffffffffffffffffffffff1673ffffffffffffffffffffffffffffffffffffffff161415610e5d57600260003373ffffffffffffffffffffffffffffffffffffffff1673ffffffffffffffffffffffffffffffffffffffff168152602001908152602001600020600183610cff9190611fea565b81548110610d1057610d0f611e3f565b5b9060005260206000200160009054906101000a900473ffffffffffffffffffffffffffffffffffffffff16600260003373ffffffffffffffffffffffffffffffffffffffff1673ffffffffffffffffffffffffffffffffffffffff1681526020019081526020016000208281548110610d8c57610d8b611e3f565b5b9060005260206000200160006101000a81548173ffffffffffffffffffffffffffffffffffffffff021916908373ffffffffffffffffffffffffffffffffffffffff160217905550600260003373ffffffffffffffffffffffffffffffffffffffff1673ffffffffffffffffffffffffffffffffffffffff168152602001908152602001600020805480610e2357610e2261201e565b5b6001900381819060005260206000200160006101000a81549073ffffffffffffffffffffffffffffffffffffffff02191690559055610e70565b8080610e6890611efe565b915050610bfc565b505050565b6060806000600160003373ffffffffffffffffffffffffffffffffffffffff1673ffffffffffffffffffffffffffffffffffffffff16815260200190815260200160002080549050905060008167ffffffffffffffff811115610edb57610eda61199d565b5b604051908082528060200260200182016040528015610f0e57816020015b6060815260200190600190039081610ef95790505b50905060005b828110156110cc57600080600160003373ffffffffffffffffffffffffffffffffffffffff1673ffffffffffffffffffffffffffffffffffffffff1681526020019081526020016000208381548110610f7057610f6f611e3f565b5b9060005260206000200160009054906101000a900473ffffffffffffffffffffffffffffffffffffffff1673ffffffffffffffffffffffffffffffffffffffff1673ffffffffffffffffffffffffffffffffffffffff16815260200190815260200160002060003373ffffffffffffffffffffffffffffffffffffffff1673ffffffffffffffffffffffffffffffffffffffff168152602001908152602001600020805461101d90611e9d565b80601f016020809104026020016040519081016040528092919081815260200182805461104990611e9d565b80156110965780601f1061106b57610100808354040283529160200191611096565b820191906000526020600020905b81548152906001019060200180831161107957829003601f168201915b50505050508282815181106110ae576110ad611e3f565b5b602002602001018190525080806110c490611efe565b915050610f14565b5080600160003373ffffffffffffffffffffffffffffffffffffffff1673ffffffffffffffffffffffffffffffffffffffff1681526020019081526020016000208080548060200260200160405190810160405280929190818152602001828054801561118e57602002820191906000526020600020905b8160009054906101000a900473ffffffffffffffffffffffffffffffffffffffff1673ffffffffffffffffffffffffffffffffffffffff1681526020019060010190808311611144575b505050505090509350935050509091565b60008073ffffffffffffffffffffffffffffffffffffffff168373ffffffffffffffffffffffffffffffffffffffff161415611210576040517f08c379a0000000000000000000000000000000000000000000000000000000008152600401611207906120bf565b60405180910390fd5b6000600460008573ffffffffffffffffffffffffffffffffffffffff1673ffffffffffffffffffffffffffffffffffffffff168152602001908152602001600020541415611293576040517f08c379a000000000000000000000000000000000000000000000000000000000815260040161128a9061212b565b60405180910390fd5b60008060008573ffffffffffffffffffffffffffffffffffffffff1673ffffffffffffffffffffffffffffffffffffffff16815260200190815260200160002060003373ffffffffffffffffffffffffffffffffffffffff1673ffffffffffffffffffffffffffffffffffffffff168152602001908152602001600020805461131b90611e9d565b90501461135d576040517f08c379a0000000000000000000000000000000000000000000000000000000008152600401611354906121bd565b60405180910390fd5b816000808573ffffffffffffffffffffffffffffffffffffffff1673ffffffffffffffffffffffffffffffffffffffff16815260200190815260200160002060003373ffffffffffffffffffffffffffffffffffffffff1673ffffffffffffffffffffffffffffffffffffffff16815260200190815260200160002090805190602001906113ec9291906115fd565b50600160003373ffffffffffffffffffffffffffffffffffffffff1673ffffffffffffffffffffffffffffffffffffffff168152602001908152602001600020839080600181540180825580915050600190039060005260206000200160009091909190916101000a81548173ffffffffffffffffffffffffffffffffffffffff021916908373ffffffffffffffffffffffffffffffffffffffff160217905550600260008473ffffffffffffffffffffffffffffffffffffffff1673ffffffffffffffffffffffffffffffffffffffff168152602001908152602001600020339080600181540180825580915050600190039060005260206000200160009091909190916101000a81548173ffffffffffffffffffffffffffffffffffffffff021916908373ffffffffffffffffffffffffffffffffffffffff1602179055506001905092915050565b82805461154390611e9d565b90600052602060002090601f01602090048101928261156557600085556115ac565b82601f1061157e57805160ff19168380011785556115ac565b828001600101855582156115ac579182015b828111156115ab578251825591602001919060010190611590565b5b5090506115b99190611683565b5090565b5080546115c990611e9d565b6000825580601f106115db57506115fa565b601f0160209004906000526020600020908101906115f99190611683565b5b50565b82805461160990611e9d565b90600052602060002090601f01602090048101928261162b5760008555611672565b82601f1061164457805160ff1916838001178555611672565b82800160010185558215611672579182015b82811115611671578251825591602001919060010190611656565b5b50905061167f9190611683565b5090565b5b8082111561169c576000816000905550600101611684565b5090565b600081519050919050565b600082825260208201905092915050565b6000819050602082019050919050565b600081519050919050565b600082825260208201905092915050565b60005b838110156117065780820151818401526020810190506116eb565b83811115611715576000848401525b50505050565b6000601f19601f8301169050919050565b6000611737826116cc565b61174181856116d7565b93506117518185602086016116e8565b61175a8161171b565b840191505092915050565b6000611771838361172c565b905092915050565b6000602082019050919050565b6000611791826116a0565b61179b81856116ab565b9350836020820285016117ad856116bc565b8060005b858110156117e957848403895281516117ca8582611765565b94506117d583611779565b925060208a019950506001810190506117b1565b50829750879550505050505092915050565b600081519050919050565b600082825260208201905092915050565b6000819050602082019050919050565b600073ffffffffffffffffffffffffffffffffffffffff82169050919050565b600061185282611827565b9050919050565b61186281611847565b82525050565b60006118748383611859565b60208301905092915050565b6000602082019050919050565b6000611898826117fb565b6118a28185611806565b93506118ad83611817565b8060005b838110156118de5781516118c58882611868565b97506118d083611880565b9250506001810190506118b1565b5085935050505092915050565b600060408201905081810360008301526119058185611786565b90508181036020830152611919818461188d565b90509392505050565b60008115159050919050565b61193781611922565b82525050565b6000602082019050611952600083018461192e565b92915050565b6000604051905090565b600080fd5b600080fd5b61197581611847565b811461198057600080fd5b50565b6000813590506119928161196c565b92915050565b600080fd5b7f4e487b7100000000000000000000000000000000000000000000000000000000600052604160045260246000fd5b6119d58261171b565b810181811067ffffffffffffffff821117156119f4576119f361199d565b5b80604052505050565b6000611a07611958565b9050611a1382826119cc565b919050565b600080fd5b6000819050919050565b611a3081611a1d565b8114611a3b57600080fd5b50565b600081359050611a4d81611a27565b92915050565b600080fd5b600080fd5b600067ffffffffffffffff821115611a7857611a7761199d565b5b611a818261171b565b9050602081019050919050565b82818337600083830152505050565b6000611ab0611aab84611a5d565b6119fd565b905082815260208101848484011115611acc57611acb611a58565b5b611ad7848285611a8e565b509392505050565b600082601f830112611af457611af3611a53565b5b8135611b04848260208601611a9d565b91505092915050565b600060ff82169050919050565b611b2381611b0d565b8114611b2e57600080fd5b50565b600081359050611b4081611b1a565b92915050565b600061ffff82169050919050565b611b5d81611b46565b8114611b6857600080fd5b50565b600081359050611b7a81611b54565b92915050565b600060e08284031215611b9657611b95611998565b5b611ba060e06119fd565b90506000611bb084828501611a3e565b600083015250602082013567ffffffffffffffff811115611bd457611bd3611a18565b5b611be084828501611adf565b6020830152506040611bf484828501611b31565b6040830152506060611c0884828501611b31565b6060830152506080611c1c84828501611b6b565b60808301525060a0611c3084828501611b31565b60a08301525060c0611c4484828501611b31565b60c08301525092915050565b611c5981611922565b8114611c6457600080fd5b50565b600081359050611c7681611c50565b92915050565b600080600060608486031215611c9557611c94611962565b5b6000611ca386828701611983565b935050602084013567ffffffffffffffff811115611cc457611cc3611967565b5b611cd086828701611b80565b9250506040611ce186828701611c67565b9150509250925092565b611cf481611a1d565b82525050565b6000602082019050611d0f6000830184611ceb565b92915050565b600060208284031215611d2b57611d2a611962565b5b6000611d3984828501611983565b91505092915050565b600067ffffffffffffffff821115611d5d57611d5c61199d565b5b611d668261171b565b9050602081019050919050565b6000611d86611d8184611d42565b6119fd565b905082815260208101848484011115611da257611da1611a58565b5b611dad848285611a8e565b509392505050565b600082601f830112611dca57611dc9611a53565b5b8135611dda848260208601611d73565b91505092915050565b60008060408385031215611dfa57611df9611962565b5b6000611e0885828601611983565b925050602083013567ffffffffffffffff811115611e2957611e28611967565b5b611e3585828601611db5565b9150509250929050565b7f4e487b7100000000000000000000000000000000000000000000000000000000600052603260045260246000fd5b7f4e487b7100000000000000000000000000000000000000000000000000000000600052602260045260246000fd5b60006002820490506001821680611eb557607f821691505b60208210811415611ec957611ec8611e6e565b5b50919050565b7f4e487b7100000000000000000000000000000000000000000000000000000000600052601160045260246000fd5b6000611f0982611a1d565b91507fffffffffffffffffffffffffffffffffffffffffffffffffffffffffffffffff821415611f3c57611f3b611ecf565b5b600182019050919050565b600082825260208201905092915050565b7f5342543a2043616e64696461746520686173206e6f742072657175657374207460008201527f6865205342540000000000000000000000000000000000000000000000000000602082015250565b6000611fb4602683611f47565b9150611fbf82611f58565b604082019050919050565b60006020820190508181036000830152611fe381611fa7565b9050919050565b6000611ff582611a1d565b915061200083611a1d565b92508282101561201357612012611ecf565b5b828203905092915050565b7f4e487b7100000000000000000000000000000000000000000000000000000000600052603160045260246000fd5b7f5342543a20636f6d70616e7920616464726573732063616e6e6f74206265207460008201527f6865207a65726f20616464726573730000000000000000000000000000000000602082015250565b60006120a9602f83611f47565b91506120b48261204d565b604082019050919050565b600060208201905081810360008301526120d88161209c565b9050919050565b7f5342543a20636f6d70616e79206e6f7420726567697374657264000000000000600082015250565b6000612115601a83611f47565b9150612120826120df565b602082019050919050565b6000602082019050818103600083015261214481612108565b9050919050565b7f5342543a207265717565737420697320616c726561647920696e2070656e646960008201527f6e67206c69737400000000000000000000000000000000000000000000000000602082015250565b60006121a7602783611f47565b91506121b28261214b565b604082019050919050565b600060208201905081810360008301526121d68161219a565b905091905056fea26469706673582212208151f9925a48e5405b5b08da1e6a1a9f40eccdd4d89a612e0e5d81d533a8017c64736f6c634300080a0033",
  "immutableReferences": {},
  "source": "// SPDX-License-Identifier: MIT\r\npragma solidity ^0.8.0;\r\n\r\ncontract SBT {\r\n\r\n    struct SkillSBT {\r\n        uint id;\r\n        string name;\r\n        uint8 issueDay;\r\n        uint8 issueMonth;\r\n        uint16 issueYear;\r\n        uint8 difficulty;\r\n        uint8 testType;\r\n    }\r\n\r\n    mapping(address => mapping(address => bytes)) private pendingSBTRequests;\r\n    mapping(address => address[]) private pendingSBTCandidate;\r\n    mapping(address => address[]) private pendingSBTCompany;\r\n\r\n    mapping(address => mapping(address => SkillSBT[])) private issuedSBT;\r\n\r\n    /** \r\n     * @dev Tracks the count of a company's issued SBT\r\n     * \r\n     * - 0 means company is not registered.\r\n     * - 1 means company is registerd.\r\n     * - n means company has issued n-1 SBT. \r\n    */\r\n    mapping (address => uint) private countIssued;\r\n\r\n    /** \r\n     * @dev Registers the caller with the contract.\r\n     *\r\n     * Requirements:\r\n     *\r\n     * - the caller (company) must not be already registered.\r\n     */\r\n    function registerCompany() external returns (bool) {\r\n        if (countIssued[msg.sender] != 0) {\r\n            return false;\r\n        }\r\n        countIssued[msg.sender] = 1;\r\n        return true;\r\n    }\r\n\r\n    /**\r\n     * @dev Requests a SBT from `company` for the caller's account.\r\n     *\r\n     * Returns a boolean value indicating whether the operation succeeded.\r\n     *\r\n     * Requirements:\r\n     *\r\n     * - `company` cannot be the zero address.\r\n     * - `company` must be registerd with contract.\r\n     * - the caller must not have requested the same `company` before.\r\n     */\r\n    function requestSBT(address company, bytes memory credentialId) external returns (bool) {\r\n        require(company != address(0), \"SBT: company address cannot be the zero address\");\r\n        require(countIssued[company] != 0, \"SBT: company not registerd\");\r\n\r\n        require (pendingSBTRequests[company][msg.sender].length == 0, \"SBT: request is already in pending list\");\r\n\r\n        pendingSBTRequests[company][msg.sender] = credentialId;\r\n        pendingSBTCandidate[msg.sender].push(company);\r\n        pendingSBTCompany[company].push(msg.sender);\r\n        return true;\r\n    }\r\n\r\n    /** \r\n     * @dev Returns count of SBT issued by the caller (company)\r\n     */\r\n    function getCountIssued() external view returns (uint) {\r\n        return countIssued[msg.sender];\r\n    }\r\n\r\n    /**\r\n     * @dev Returns the Pending SBTs of the caller [Candidate]\r\n     */\r\n    function getPendingSBTCandidate() external view returns (bytes[] memory, address[] memory) {\r\n        uint length = pendingSBTCandidate[msg.sender].length;\r\n        bytes[] memory credentialIds = new bytes[](length);\r\n        for (uint i = 0; i < length; i++) {\r\n            credentialIds[i] = pendingSBTRequests[pendingSBTCandidate[msg.sender][i]][msg.sender];\r\n        }\r\n        return (credentialIds, pendingSBTCandidate[msg.sender]);\r\n    }\r\n\r\n    /**\r\n     * @dev Returns the Pending SBTs of the caller [Company]\r\n     */\r\n    function getPendingSBTCompany() external view returns (bytes[] memory, address[] memory) {\r\n        uint length = pendingSBTCompany[msg.sender].length;\r\n        bytes[] memory credentialIds = new bytes[](length);\r\n        for (uint i = 0; i < length; i++) {\r\n            credentialIds[i] = pendingSBTRequests[msg.sender][pendingSBTCompany[msg.sender][i]];\r\n        }\r\n        return (credentialIds, pendingSBTCompany[msg.sender]);\r\n    }\r\n\r\n    /**\r\n     * @dev Takes an address, credentialId, response and responds to the SBT\r\n     * Request\r\n     */\r\n    function respontToRequest(address candidate, SkillSBT memory skillSBT, bool response) external {\r\n        require(\r\n            pendingSBTRequests[msg.sender][candidate].length != 0,\r\n            \"SBT: Candidate has not request the SBT\"\r\n        );\r\n        \r\n        if (response == true) {\r\n            skillSBT.id = countIssued[msg.sender];\r\n            countIssued[msg.sender]++;\r\n            issuedSBT[msg.sender][candidate].push(skillSBT);\r\n        }\r\n        rejectRequest(candidate);\r\n    }\r\n\r\n\r\n    /**\r\n     * @dev Removes the request from the pending requests list.\r\n     */\r\n    function rejectRequest(address candidate) public {\r\n        delete pendingSBTRequests[msg.sender][candidate];\r\n        uint length = pendingSBTCandidate[candidate].length;\r\n        for (uint i = 0; i < length; i++) {\r\n            if (pendingSBTCandidate[candidate][i] == msg.sender) {\r\n                pendingSBTCandidate[candidate][i] = pendingSBTCandidate[candidate][length-1];\r\n                pendingSBTCandidate[candidate].pop();\r\n                break;\r\n            }\r\n        }\r\n\r\n        length = pendingSBTCompany[msg.sender].length;\r\n        for (uint i = 0; i < length; i++) {\r\n            if (pendingSBTCompany[msg.sender][i] == candidate) {\r\n                pendingSBTCompany[msg.sender][i] = pendingSBTCompany[msg.sender][length-1];\r\n                pendingSBTCompany[msg.sender].pop();\r\n                break;\r\n            }\r\n        }\r\n    }\r\n}",
  "sourcePath": "C:\\My Data\\Sem0\\React Apps\\soul-xp\\client\\src\\truffle\\contracts\\SBT.sol",
  "compiler": {
    "name": "solc",
    "version": "0.8.10+commit.fc410830.Emscripten.clang"
  },
  "schemaVersion": "3.4.3",
  "updatedAt": "2022-07-24T22:09:30.091Z",
  "networkType": "ethereum",
  "devdoc": {
    "kind": "dev",
    "methods": {
      "getCountIssued()": {
        "details": "Returns count of SBT issued by the caller (company)"
      },
      "getPendingSBTCandidate()": {
        "details": "Returns the Pending SBTs of the caller [Candidate]"
      },
      "getPendingSBTCompany()": {
        "details": "Returns the Pending SBTs of the caller [Company]"
      },
      "registerCompany()": {
        "details": "Registers the caller with the contract. Requirements: - the caller (company) must not be already registered."
      },
      "rejectRequest(address)": {
        "details": "Removes the request from the pending requests list."
      },
      "requestSBT(address,bytes)": {
        "details": "Requests a SBT from `company` for the caller's account. Returns a boolean value indicating whether the operation succeeded. Requirements: - `company` cannot be the zero address. - `company` must be registerd with contract. - the caller must not have requested the same `company` before."
      },
      "respontToRequest(address,(uint256,string,uint8,uint8,uint16,uint8,uint8),bool)": {
        "details": "Takes an address, credentialId, response and responds to the SBT Request"
      }
    },
    "stateVariables": {
      "countIssued": {
        "details": "Tracks the count of a company's issued SBT  - 0 means company is not registered. - 1 means company is registerd. - n means company has issued n-1 SBT. "
      }
    },
    "version": 1
  },
  "userdoc": {
    "kind": "user",
    "methods": {},
    "version": 1
  }
}