{
  "contractName": "SBT",
  "abi": [
    {
      "inputs": [],
      "name": "registerCompany",
      "outputs": [
        {
          "internalType": "bool",
          "name": "",
          "type": "bool"
        }
      ],
      "stateMutability": "nonpayable",
      "type": "function"
    },
    {
      "inputs": [
        {
          "internalType": "address",
          "name": "company",
          "type": "address"
        },
        {
          "internalType": "bytes",
          "name": "credentialId",
          "type": "bytes"
        }
      ],
      "name": "requestSBT",
      "outputs": [
        {
          "internalType": "bool",
          "name": "",
          "type": "bool"
        }
      ],
      "stateMutability": "nonpayable",
      "type": "function"
    },
    {
      "inputs": [],
      "name": "getCountIssued",
      "outputs": [
        {
          "internalType": "uint256",
          "name": "",
          "type": "uint256"
        }
      ],
      "stateMutability": "view",
      "type": "function",
      "constant": true
    },
    {
      "inputs": [],
      "name": "getPendingSBTCandidate",
      "outputs": [
        {
          "internalType": "bytes[]",
          "name": "",
          "type": "bytes[]"
        },
        {
          "internalType": "address[]",
          "name": "",
          "type": "address[]"
        }
      ],
      "stateMutability": "view",
      "type": "function",
      "constant": true
    },
    {
      "inputs": [],
      "name": "getPendingSBTCompany",
      "outputs": [
        {
          "internalType": "bytes[]",
          "name": "",
          "type": "bytes[]"
        },
        {
          "internalType": "address[]",
          "name": "",
          "type": "address[]"
        }
      ],
      "stateMutability": "view",
      "type": "function",
      "constant": true
    }
  ],
  "bytecode": "0x608060405234801561001057600080fd5b50611416806100206000396000f3fe608060405234801561001057600080fd5b50600436106100575760003560e01c806374350d861461005c5780637cad11071461007b578063bab1638114610099578063d505b6cb146100b7578063de7a7f43146100d6575b600080fd5b610064610106565b604051610072929190610ec5565b60405180910390f35b610083610430565b6040516100909190610f17565b60405180910390f35b6100a16104ce565b6040516100ae9190610f4b565b60405180910390f35b6100bf610515565b6040516100cd929190610ec5565b60405180910390f35b6100f060048036038101906100eb91906110db565b61083f565b6040516100fd9190610f17565b60405180910390f35b6060806000600260003373ffffffffffffffffffffffffffffffffffffffff1673ffffffffffffffffffffffffffffffffffffffff16815260200190815260200160002080549050905060008167ffffffffffffffff81111561016c5761016b610fb0565b5b60405190808252806020026020018201604052801561019f57816020015b606081526020019060019003908161018a5790505b50905060005b8281101561035d576000803373ffffffffffffffffffffffffffffffffffffffff1673ffffffffffffffffffffffffffffffffffffffff1681526020019081526020016000206000600260003373ffffffffffffffffffffffffffffffffffffffff1673ffffffffffffffffffffffffffffffffffffffff168152602001908152602001600020838154811061023e5761023d611137565b5b9060005260206000200160009054906101000a900473ffffffffffffffffffffffffffffffffffffffff1673ffffffffffffffffffffffffffffffffffffffff1673ffffffffffffffffffffffffffffffffffffffff16815260200190815260200160002080546102ae90611195565b80601f01602080910402602001604051908101604052809291908181526020018280546102da90611195565b80156103275780601f106102fc57610100808354040283529160200191610327565b820191906000526020600020905b81548152906001019060200180831161030a57829003601f168201915b505050505082828151811061033f5761033e611137565b5b60200260200101819052508080610355906111f6565b9150506101a5565b5080600260003373ffffffffffffffffffffffffffffffffffffffff1673ffffffffffffffffffffffffffffffffffffffff1681526020019081526020016000208080548060200260200160405190810160405280929190818152602001828054801561041f57602002820191906000526020600020905b8160009054906101000a900473ffffffffffffffffffffffffffffffffffffffff1673ffffffffffffffffffffffffffffffffffffffff16815260200190600101908083116103d5575b505050505090509350935050509091565b600080600360003373ffffffffffffffffffffffffffffffffffffffff1673ffffffffffffffffffffffffffffffffffffffff168152602001908152602001600020541461048157600090506104cb565b6001600360003373ffffffffffffffffffffffffffffffffffffffff1673ffffffffffffffffffffffffffffffffffffffff16815260200190815260200160002081905550600190505b90565b6000600360003373ffffffffffffffffffffffffffffffffffffffff1673ffffffffffffffffffffffffffffffffffffffff16815260200190815260200160002054905090565b6060806000600160003373ffffffffffffffffffffffffffffffffffffffff1673ffffffffffffffffffffffffffffffffffffffff16815260200190815260200160002080549050905060008167ffffffffffffffff81111561057b5761057a610fb0565b5b6040519080825280602002602001820160405280156105ae57816020015b60608152602001906001900390816105995790505b50905060005b8281101561076c57600080600160003373ffffffffffffffffffffffffffffffffffffffff1673ffffffffffffffffffffffffffffffffffffffff16815260200190815260200160002083815481106106105761060f611137565b5b9060005260206000200160009054906101000a900473ffffffffffffffffffffffffffffffffffffffff1673ffffffffffffffffffffffffffffffffffffffff1673ffffffffffffffffffffffffffffffffffffffff16815260200190815260200160002060003373ffffffffffffffffffffffffffffffffffffffff1673ffffffffffffffffffffffffffffffffffffffff16815260200190815260200160002080546106bd90611195565b80601f01602080910402602001604051908101604052809291908181526020018280546106e990611195565b80156107365780601f1061070b57610100808354040283529160200191610736565b820191906000526020600020905b81548152906001019060200180831161071957829003601f168201915b505050505082828151811061074e5761074d611137565b5b60200260200101819052508080610764906111f6565b9150506105b4565b5080600160003373ffffffffffffffffffffffffffffffffffffffff1673ffffffffffffffffffffffffffffffffffffffff1681526020019081526020016000208080548060200260200160405190810160405280929190818152602001828054801561082e57602002820191906000526020600020905b8160009054906101000a900473ffffffffffffffffffffffffffffffffffffffff1673ffffffffffffffffffffffffffffffffffffffff16815260200190600101908083116107e4575b505050505090509350935050509091565b60008073ffffffffffffffffffffffffffffffffffffffff168373ffffffffffffffffffffffffffffffffffffffff1614156108b0576040517f08c379a00000000000000000000000000000000000000000000000000000000081526004016108a7906112c2565b60405180910390fd5b6000600360008573ffffffffffffffffffffffffffffffffffffffff1673ffffffffffffffffffffffffffffffffffffffff168152602001908152602001600020541415610933576040517f08c379a000000000000000000000000000000000000000000000000000000000815260040161092a9061132e565b60405180910390fd5b60008060008573ffffffffffffffffffffffffffffffffffffffff1673ffffffffffffffffffffffffffffffffffffffff16815260200190815260200160002060003373ffffffffffffffffffffffffffffffffffffffff1673ffffffffffffffffffffffffffffffffffffffff16815260200190815260200160002080546109bb90611195565b9050146109fd576040517f08c379a00000000000000000000000000000000000000000000000000000000081526004016109f4906113c0565b60405180910390fd5b816000808573ffffffffffffffffffffffffffffffffffffffff1673ffffffffffffffffffffffffffffffffffffffff16815260200190815260200160002060003373ffffffffffffffffffffffffffffffffffffffff1673ffffffffffffffffffffffffffffffffffffffff1681526020019081526020016000209080519060200190610a8c929190610bd7565b50600160003373ffffffffffffffffffffffffffffffffffffffff1673ffffffffffffffffffffffffffffffffffffffff168152602001908152602001600020839080600181540180825580915050600190039060005260206000200160009091909190916101000a81548173ffffffffffffffffffffffffffffffffffffffff021916908373ffffffffffffffffffffffffffffffffffffffff160217905550600260008473ffffffffffffffffffffffffffffffffffffffff1673ffffffffffffffffffffffffffffffffffffffff168152602001908152602001600020339080600181540180825580915050600190039060005260206000200160009091909190916101000a81548173ffffffffffffffffffffffffffffffffffffffff021916908373ffffffffffffffffffffffffffffffffffffffff1602179055506001905092915050565b828054610be390611195565b90600052602060002090601f016020900481019282610c055760008555610c4c565b82601f10610c1e57805160ff1916838001178555610c4c565b82800160010185558215610c4c579182015b82811115610c4b578251825591602001919060010190610c30565b5b509050610c599190610c5d565b5090565b5b80821115610c76576000816000905550600101610c5e565b5090565b600081519050919050565b600082825260208201905092915050565b6000819050602082019050919050565b600081519050919050565b600082825260208201905092915050565b60005b83811015610ce0578082015181840152602081019050610cc5565b83811115610cef576000848401525b50505050565b6000601f19601f8301169050919050565b6000610d1182610ca6565b610d1b8185610cb1565b9350610d2b818560208601610cc2565b610d3481610cf5565b840191505092915050565b6000610d4b8383610d06565b905092915050565b6000602082019050919050565b6000610d6b82610c7a565b610d758185610c85565b935083602082028501610d8785610c96565b8060005b85811015610dc35784840389528151610da48582610d3f565b9450610daf83610d53565b925060208a01995050600181019050610d8b565b50829750879550505050505092915050565b600081519050919050565b600082825260208201905092915050565b6000819050602082019050919050565b600073ffffffffffffffffffffffffffffffffffffffff82169050919050565b6000610e2c82610e01565b9050919050565b610e3c81610e21565b82525050565b6000610e4e8383610e33565b60208301905092915050565b6000602082019050919050565b6000610e7282610dd5565b610e7c8185610de0565b9350610e8783610df1565b8060005b83811015610eb8578151610e9f8882610e42565b9750610eaa83610e5a565b925050600181019050610e8b565b5085935050505092915050565b60006040820190508181036000830152610edf8185610d60565b90508181036020830152610ef38184610e67565b90509392505050565b60008115159050919050565b610f1181610efc565b82525050565b6000602082019050610f2c6000830184610f08565b92915050565b6000819050919050565b610f4581610f32565b82525050565b6000602082019050610f606000830184610f3c565b92915050565b6000604051905090565b600080fd5b600080fd5b610f8381610e21565b8114610f8e57600080fd5b50565b600081359050610fa081610f7a565b92915050565b600080fd5b600080fd5b7f4e487b7100000000000000000000000000000000000000000000000000000000600052604160045260246000fd5b610fe882610cf5565b810181811067ffffffffffffffff8211171561100757611006610fb0565b5b80604052505050565b600061101a610f66565b90506110268282610fdf565b919050565b600067ffffffffffffffff82111561104657611045610fb0565b5b61104f82610cf5565b9050602081019050919050565b82818337600083830152505050565b600061107e6110798461102b565b611010565b90508281526020810184848401111561109a57611099610fab565b5b6110a584828561105c565b509392505050565b600082601f8301126110c2576110c1610fa6565b5b81356110d284826020860161106b565b91505092915050565b600080604083850312156110f2576110f1610f70565b5b600061110085828601610f91565b925050602083013567ffffffffffffffff81111561112157611120610f75565b5b61112d858286016110ad565b9150509250929050565b7f4e487b7100000000000000000000000000000000000000000000000000000000600052603260045260246000fd5b7f4e487b7100000000000000000000000000000000000000000000000000000000600052602260045260246000fd5b600060028204905060018216806111ad57607f821691505b602082108114156111c1576111c0611166565b5b50919050565b7f4e487b7100000000000000000000000000000000000000000000000000000000600052601160045260246000fd5b600061120182610f32565b91507fffffffffffffffffffffffffffffffffffffffffffffffffffffffffffffffff821415611234576112336111c7565b5b600182019050919050565b600082825260208201905092915050565b7f5342543a20636f6d70616e7920616464726573732063616e6e6f74206265207460008201527f6865207a65726f20616464726573730000000000000000000000000000000000602082015250565b60006112ac602f8361123f565b91506112b782611250565b604082019050919050565b600060208201905081810360008301526112db8161129f565b9050919050565b7f5342543a20636f6d70616e79206e6f7420726567697374657264000000000000600082015250565b6000611318601a8361123f565b9150611323826112e2565b602082019050919050565b600060208201905081810360008301526113478161130b565b9050919050565b7f5342543a207265717565737420697320616c726561647920696e2070656e646960008201527f6e67206c69737400000000000000000000000000000000000000000000000000602082015250565b60006113aa60278361123f565b91506113b58261134e565b604082019050919050565b600060208201905081810360008301526113d98161139d565b905091905056fea26469706673582212207280bea870e92c3be252121681fd90ca75d2cfa056bde245fbc0fbd7ac615edd64736f6c634300080a0033",
  "immutableReferences": {},
  "source": "// SPDX-License-Identifier: MIT\r\npragma solidity ^0.8.0;\r\n\r\ncontract SBT {\r\n\r\n    struct SkillSBT {\r\n        uint id;\r\n        string name;\r\n        uint8 issueDay;\r\n        uint8 issueMonth;\r\n        uint16 issueYear;\r\n        uint8 difficulty;\r\n        uint8 testType;\r\n    }\r\n\r\n    mapping(address => mapping(address => bytes)) private pendingSBTRequests;\r\n    mapping(address => address[]) private pendingSBTCandidate;\r\n    mapping(address => address[]) private pendingSBTCompany;\r\n\r\n    /** \r\n     * @dev Tracks the count of a company's issued SBT\r\n     * \r\n     * - 0 means company is not registered.\r\n     * - 1 means company is registerd.\r\n     * - n means company has issued n-1 SBT. \r\n    */\r\n    mapping (address => uint) private countIssued;\r\n\r\n    /** \r\n     * @dev Registers the caller with the contract.\r\n     *\r\n     * Requirements:\r\n     *\r\n     * - the caller (company) must not be already registered.\r\n     */\r\n    function registerCompany() external returns (bool) {\r\n        if (countIssued[msg.sender] != 0) {\r\n            return false;\r\n        }\r\n        countIssued[msg.sender] = 1;\r\n        return true;\r\n    }\r\n\r\n    /**\r\n     * @dev Requests a SBT from `company` for the caller's account.\r\n     *\r\n     * Returns a boolean value indicating whether the operation succeeded.\r\n     *\r\n     * Requirements:\r\n     *\r\n     * - `company` cannot be the zero address.\r\n     * - `company` must be registerd with contract.\r\n     * - the caller must not have requested the same `company` before.\r\n     */\r\n    function requestSBT(address company, bytes memory credentialId) external returns (bool) {\r\n        require(company != address(0), \"SBT: company address cannot be the zero address\");\r\n        require(countIssued[company] != 0, \"SBT: company not registerd\");\r\n\r\n        require (pendingSBTRequests[company][msg.sender].length == 0, \"SBT: request is already in pending list\");\r\n\r\n        pendingSBTRequests[company][msg.sender] = credentialId;\r\n        pendingSBTCandidate[msg.sender].push(company);\r\n        pendingSBTCompany[company].push(msg.sender);\r\n        return true;\r\n    }\r\n\r\n    /** \r\n     * @dev Returns count of SBT issued by the caller (company)\r\n     */\r\n    function getCountIssued() external view returns (uint) {\r\n        return countIssued[msg.sender];\r\n    }\r\n\r\n    /**\r\n     * @dev Returns the Pending SBTs of the caller [Candidate]\r\n     */\r\n    function getPendingSBTCandidate() external view returns (bytes[] memory, address[] memory) {\r\n        uint length = pendingSBTCandidate[msg.sender].length;\r\n        bytes[] memory credentialIds = new bytes[](length);\r\n        for (uint i = 0; i < length; i++) {\r\n            credentialIds[i] = pendingSBTRequests[pendingSBTCandidate[msg.sender][i]][msg.sender];\r\n        }\r\n        return (credentialIds, pendingSBTCandidate[msg.sender]);\r\n    }\r\n\r\n    /**\r\n     * @dev Returns the Pending SBTs of the caller [Company]\r\n     */\r\n    function getPendingSBTCompany() external view returns (bytes[] memory, address[] memory) {\r\n        uint length = pendingSBTCompany[msg.sender].length;\r\n        bytes[] memory credentialIds = new bytes[](length);\r\n        for (uint i = 0; i < length; i++) {\r\n            credentialIds[i] = pendingSBTRequests[msg.sender][pendingSBTCompany[msg.sender][i]];\r\n        }\r\n        return (credentialIds, pendingSBTCompany[msg.sender]);\r\n    }\r\n}",
  "sourcePath": "C:\\My Data\\Sem0\\React Apps\\soul-xp\\client\\src\\truffle\\contracts\\SBT.sol",
  "compiler": {
    "name": "solc",
    "version": "0.8.10+commit.fc410830.Emscripten.clang"
  },
  "schemaVersion": "3.4.3",
  "updatedAt": "2022-07-24T18:28:08.346Z",
  "networkType": "ethereum",
  "devdoc": {
    "kind": "dev",
    "methods": {
      "getCountIssued()": {
        "details": "Returns count of SBT issued by the caller (company)"
      },
      "getPendingSBTCandidate()": {
        "details": "Returns the Pending SBTs of the caller [Candidate]"
      },
      "getPendingSBTCompany()": {
        "details": "Returns the Pending SBTs of the caller [Company]"
      },
      "registerCompany()": {
        "details": "Registers the caller with the contract. Requirements: - the caller (company) must not be already registered."
      },
      "requestSBT(address,bytes)": {
        "details": "Requests a SBT from `company` for the caller's account. Returns a boolean value indicating whether the operation succeeded. Requirements: - `company` cannot be the zero address. - `company` must be registerd with contract. - the caller must not have requested the same `company` before."
      }
    },
    "stateVariables": {
      "countIssued": {
        "details": "Tracks the count of a company's issued SBT  - 0 means company is not registered. - 1 means company is registerd. - n means company has issued n-1 SBT. "
      }
    },
    "version": 1
  },
  "userdoc": {
    "kind": "user",
    "methods": {},
    "version": 1
  }
}