{
  "contractName": "SBT",
  "abi": [
    {
      "inputs": [],
      "name": "registerCompany",
      "outputs": [
        {
          "internalType": "bool",
          "name": "",
          "type": "bool"
        }
      ],
      "stateMutability": "nonpayable",
      "type": "function"
    },
    {
      "inputs": [
        {
          "internalType": "address",
          "name": "company",
          "type": "address"
        },
        {
          "internalType": "bytes",
          "name": "credentialId",
          "type": "bytes"
        }
      ],
      "name": "requestSBT",
      "outputs": [
        {
          "internalType": "bool",
          "name": "",
          "type": "bool"
        }
      ],
      "stateMutability": "nonpayable",
      "type": "function"
    },
    {
      "inputs": [],
      "name": "getCountIssued",
      "outputs": [
        {
          "internalType": "uint256",
          "name": "",
          "type": "uint256"
        }
      ],
      "stateMutability": "view",
      "type": "function",
      "constant": true
    },
    {
      "inputs": [],
      "name": "getPendingSBTCandidate",
      "outputs": [
        {
          "internalType": "bytes[]",
          "name": "",
          "type": "bytes[]"
        },
        {
          "internalType": "address[]",
          "name": "",
          "type": "address[]"
        }
      ],
      "stateMutability": "view",
      "type": "function",
      "constant": true
    },
    {
      "inputs": [],
      "name": "getPendingSBTCompany",
      "outputs": [
        {
          "internalType": "bytes[]",
          "name": "",
          "type": "bytes[]"
        },
        {
          "internalType": "address[]",
          "name": "",
          "type": "address[]"
        }
      ],
      "stateMutability": "view",
      "type": "function",
      "constant": true
    },
    {
      "inputs": [
        {
          "internalType": "address",
          "name": "candidate",
          "type": "address"
        },
        {
          "components": [
            {
              "internalType": "uint256",
              "name": "id",
              "type": "uint256"
            },
            {
              "internalType": "string",
              "name": "name",
              "type": "string"
            },
            {
              "internalType": "uint8",
              "name": "issueDay",
              "type": "uint8"
            },
            {
              "internalType": "uint8",
              "name": "issueMonth",
              "type": "uint8"
            },
            {
              "internalType": "uint16",
              "name": "issueYear",
              "type": "uint16"
            },
            {
              "internalType": "uint8",
              "name": "difficulty",
              "type": "uint8"
            },
            {
              "internalType": "uint8",
              "name": "testType",
              "type": "uint8"
            },
            {
              "internalType": "string",
              "name": "companyAddress",
              "type": "string"
            }
          ],
          "internalType": "struct SBT.SkillSBT",
          "name": "skillSBT",
          "type": "tuple"
        },
        {
          "internalType": "bool",
          "name": "response",
          "type": "bool"
        }
      ],
      "name": "respondToRequest",
      "outputs": [],
      "stateMutability": "nonpayable",
      "type": "function"
    },
    {
      "inputs": [
        {
          "internalType": "address",
          "name": "candidate",
          "type": "address"
        }
      ],
      "name": "rejectRequest",
      "outputs": [],
      "stateMutability": "nonpayable",
      "type": "function"
    },
    {
      "inputs": [],
      "name": "getIssuedSBTCandidate",
      "outputs": [
        {
          "components": [
            {
              "internalType": "uint256",
              "name": "id",
              "type": "uint256"
            },
            {
              "internalType": "string",
              "name": "name",
              "type": "string"
            },
            {
              "internalType": "uint8",
              "name": "issueDay",
              "type": "uint8"
            },
            {
              "internalType": "uint8",
              "name": "issueMonth",
              "type": "uint8"
            },
            {
              "internalType": "uint16",
              "name": "issueYear",
              "type": "uint16"
            },
            {
              "internalType": "uint8",
              "name": "difficulty",
              "type": "uint8"
            },
            {
              "internalType": "uint8",
              "name": "testType",
              "type": "uint8"
            },
            {
              "internalType": "string",
              "name": "companyAddress",
              "type": "string"
            }
          ],
          "internalType": "struct SBT.SkillSBT[]",
          "name": "",
          "type": "tuple[]"
        }
      ],
      "stateMutability": "view",
      "type": "function",
      "constant": true
    },
    {
      "inputs": [
        {
          "internalType": "address",
          "name": "company",
          "type": "address"
        },
        {
          "internalType": "address",
          "name": "candidate",
          "type": "address"
        },
        {
          "internalType": "uint256",
          "name": "id",
          "type": "uint256"
        }
      ],
      "name": "verifySBT",
      "outputs": [
        {
          "internalType": "bool",
          "name": "",
          "type": "bool"
        }
      ],
      "stateMutability": "view",
      "type": "function",
      "constant": true
    }
  ],
  "bytecode": "0x608060405234801561001057600080fd5b50612cdf806100206000396000f3fe608060405234801561001057600080fd5b50600436106100935760003560e01c80638992dd57116100665780638992dd571461010f578063bab163811461013f578063ca07b4b41461015d578063d505b6cb14610179578063de7a7f431461019857610093565b806356a0c23f146100985780636f0d86cc146100b657806374350d86146100d25780637cad1107146100f1575b600080fd5b6100a06101c8565b6040516100ad91906120c2565b60405180910390f35b6100d060048036038101906100cb9190612453565b610427565b005b6100da610895565b6040516100e8929190612697565b60405180910390f35b6100f9610bbf565b60405161010691906126dd565b60405180910390f35b610129600480360381019061012491906126f8565b610c5d565b60405161013691906126dd565b60405180910390f35b610147610fe5565b604051610154919061275a565b60405180910390f35b61017760048036038101906101729190612775565b61102c565b005b610181611633565b60405161018f929190612697565b60405180910390f35b6101b260048036038101906101ad9190612843565b61195d565b6040516101bf91906126dd565b60405180910390f35b6060600460003373ffffffffffffffffffffffffffffffffffffffff1673ffffffffffffffffffffffffffffffffffffffff168152602001908152602001600020805480602002602001604051908101604052809291908181526020016000905b8282101561041e57838290600052602060002090600402016040518061010001604052908160008201548152602001600182018054610267906128ce565b80601f0160208091040260200160405190810160405280929190818152602001828054610293906128ce565b80156102e05780601f106102b5576101008083540402835291602001916102e0565b820191906000526020600020905b8154815290600101906020018083116102c357829003601f168201915b505050505081526020016002820160009054906101000a900460ff1660ff1660ff1681526020016002820160019054906101000a900460ff1660ff1660ff1681526020016002820160029054906101000a900461ffff1661ffff1661ffff1681526020016002820160049054906101000a900460ff1660ff1660ff1681526020016002820160059054906101000a900460ff1660ff1660ff16815260200160038201805461038d906128ce565b80601f01602080910402602001604051908101604052809291908181526020018280546103b9906128ce565b80156104065780601f106103db57610100808354040283529160200191610406565b820191906000526020600020905b8154815290600101906020018083116103e957829003601f168201915b50505050508152505081526020019060010190610229565b50505050905090565b60008060003373ffffffffffffffffffffffffffffffffffffffff1673ffffffffffffffffffffffffffffffffffffffff16815260200190815260200160002060008573ffffffffffffffffffffffffffffffffffffffff1673ffffffffffffffffffffffffffffffffffffffff16815260200190815260200160002080546104af906128ce565b905014156104f2576040517f08c379a00000000000000000000000000000000000000000000000000000000081526004016104e990612983565b60405180910390fd5b60011515811515141561088757600560003373ffffffffffffffffffffffffffffffffffffffff1673ffffffffffffffffffffffffffffffffffffffff16815260200190815260200160002054826000018181525050600560003373ffffffffffffffffffffffffffffffffffffffff1673ffffffffffffffffffffffffffffffffffffffff1681526020019081526020016000206000815480929190610598906129d2565b9190505550600460008473ffffffffffffffffffffffffffffffffffffffff1673ffffffffffffffffffffffffffffffffffffffff16815260200190815260200160002082908060018154018082558091505060019003906000526020600020906004020160009091909190915060008201518160000155602082015181600101908051906020019061062c929190611cf5565b5060408201518160020160006101000a81548160ff021916908360ff16021790555060608201518160020160016101000a81548160ff021916908360ff16021790555060808201518160020160026101000a81548161ffff021916908361ffff16021790555060a08201518160020160046101000a81548160ff021916908360ff16021790555060c08201518160020160056101000a81548160ff021916908360ff16021790555060e08201518160030190805190602001906106f0929190611cf5565b505050600360003373ffffffffffffffffffffffffffffffffffffffff1673ffffffffffffffffffffffffffffffffffffffff16815260200190815260200160002060008473ffffffffffffffffffffffffffffffffffffffff1673ffffffffffffffffffffffffffffffffffffffff1681526020019081526020016000208290806001815401808255809150506001900390600052602060002090600402016000909190919091506000820151816000015560208201518160010190805190602001906107bf929190611cf5565b5060408201518160020160006101000a81548160ff021916908360ff16021790555060608201518160020160016101000a81548160ff021916908360ff16021790555060808201518160020160026101000a81548161ffff021916908361ffff16021790555060a08201518160020160046101000a81548160ff021916908360ff16021790555060c08201518160020160056101000a81548160ff021916908360ff16021790555060e0820151816003019080519060200190610883929190611cf5565b5050505b6108908361102c565b505050565b6060806000600260003373ffffffffffffffffffffffffffffffffffffffff1673ffffffffffffffffffffffffffffffffffffffff16815260200190815260200160002080549050905060008167ffffffffffffffff8111156108fb576108fa61215b565b5b60405190808252806020026020018201604052801561092e57816020015b60608152602001906001900390816109195790505b50905060005b82811015610aec576000803373ffffffffffffffffffffffffffffffffffffffff1673ffffffffffffffffffffffffffffffffffffffff1681526020019081526020016000206000600260003373ffffffffffffffffffffffffffffffffffffffff1673ffffffffffffffffffffffffffffffffffffffff16815260200190815260200160002083815481106109cd576109cc612a1b565b5b9060005260206000200160009054906101000a900473ffffffffffffffffffffffffffffffffffffffff1673ffffffffffffffffffffffffffffffffffffffff1673ffffffffffffffffffffffffffffffffffffffff1681526020019081526020016000208054610a3d906128ce565b80601f0160208091040260200160405190810160405280929190818152602001828054610a69906128ce565b8015610ab65780601f10610a8b57610100808354040283529160200191610ab6565b820191906000526020600020905b815481529060010190602001808311610a9957829003601f168201915b5050505050828281518110610ace57610acd612a1b565b5b60200260200101819052508080610ae4906129d2565b915050610934565b5080600260003373ffffffffffffffffffffffffffffffffffffffff1673ffffffffffffffffffffffffffffffffffffffff16815260200190815260200160002080805480602002602001604051908101604052809291908181526020018280548015610bae57602002820191906000526020600020905b8160009054906101000a900473ffffffffffffffffffffffffffffffffffffffff1673ffffffffffffffffffffffffffffffffffffffff1681526020019060010190808311610b64575b505050505090509350935050509091565b600080600560003373ffffffffffffffffffffffffffffffffffffffff1673ffffffffffffffffffffffffffffffffffffffff1681526020019081526020016000205414610c105760009050610c5a565b6001600560003373ffffffffffffffffffffffffffffffffffffffff1673ffffffffffffffffffffffffffffffffffffffff16815260200190815260200160002081905550600190505b90565b600060018210158015610caf5750600560008573ffffffffffffffffffffffffffffffffffffffff1673ffffffffffffffffffffffffffffffffffffffff168152602001908152602001600020548211155b610cee576040517f08c379a0000000000000000000000000000000000000000000000000000000008152600401610ce590612a96565b60405180910390fd5b6000600360008673ffffffffffffffffffffffffffffffffffffffff1673ffffffffffffffffffffffffffffffffffffffff16815260200190815260200160002060008573ffffffffffffffffffffffffffffffffffffffff1673ffffffffffffffffffffffffffffffffffffffff168152602001908152602001600020805480602002602001604051908101604052809291908181526020016000905b82821015610f8157838290600052602060002090600402016040518061010001604052908160008201548152602001600182018054610dca906128ce565b80601f0160208091040260200160405190810160405280929190818152602001828054610df6906128ce565b8015610e435780601f10610e1857610100808354040283529160200191610e43565b820191906000526020600020905b815481529060010190602001808311610e2657829003601f168201915b505050505081526020016002820160009054906101000a900460ff1660ff1660ff1681526020016002820160019054906101000a900460ff1660ff1660ff1681526020016002820160029054906101000a900461ffff1661ffff1661ffff1681526020016002820160049054906101000a900460ff1660ff1660ff1681526020016002820160059054906101000a900460ff1660ff1660ff168152602001600382018054610ef0906128ce565b80601f0160208091040260200160405190810160405280929190818152602001828054610f1c906128ce565b8015610f695780601f10610f3e57610100808354040283529160200191610f69565b820191906000526020600020905b815481529060010190602001808311610f4c57829003601f168201915b50505050508152505081526020019060010190610d8c565b50505050905060005b8151811015610fd75783828281518110610fa757610fa6612a1b565b5b6020026020010151600001511415610fc457600192505050610fde565b8080610fcf906129d2565b915050610f8a565b5060009150505b9392505050565b6000600560003373ffffffffffffffffffffffffffffffffffffffff1673ffffffffffffffffffffffffffffffffffffffff16815260200190815260200160002054905090565b6000803373ffffffffffffffffffffffffffffffffffffffff1673ffffffffffffffffffffffffffffffffffffffff16815260200190815260200160002060008273ffffffffffffffffffffffffffffffffffffffff1673ffffffffffffffffffffffffffffffffffffffff16815260200190815260200160002060006110b39190611d7b565b6000600160008373ffffffffffffffffffffffffffffffffffffffff1673ffffffffffffffffffffffffffffffffffffffff16815260200190815260200160002080549050905060005b81811015611371573373ffffffffffffffffffffffffffffffffffffffff16600160008573ffffffffffffffffffffffffffffffffffffffff1673ffffffffffffffffffffffffffffffffffffffff168152602001908152602001600020828154811061116d5761116c612a1b565b5b9060005260206000200160009054906101000a900473ffffffffffffffffffffffffffffffffffffffff1673ffffffffffffffffffffffffffffffffffffffff16141561135e57600160008473ffffffffffffffffffffffffffffffffffffffff1673ffffffffffffffffffffffffffffffffffffffff1681526020019081526020016000206001836112009190612ab6565b8154811061121157611210612a1b565b5b9060005260206000200160009054906101000a900473ffffffffffffffffffffffffffffffffffffffff16600160008573ffffffffffffffffffffffffffffffffffffffff1673ffffffffffffffffffffffffffffffffffffffff168152602001908152602001600020828154811061128d5761128c612a1b565b5b9060005260206000200160006101000a81548173ffffffffffffffffffffffffffffffffffffffff021916908373ffffffffffffffffffffffffffffffffffffffff160217905550600160008473ffffffffffffffffffffffffffffffffffffffff1673ffffffffffffffffffffffffffffffffffffffff16815260200190815260200160002080548061132457611323612aea565b5b6001900381819060005260206000200160006101000a81549073ffffffffffffffffffffffffffffffffffffffff02191690559055611371565b8080611369906129d2565b9150506110fd565b50600260003373ffffffffffffffffffffffffffffffffffffffff1673ffffffffffffffffffffffffffffffffffffffff16815260200190815260200160002080549050905060005b8181101561162e578273ffffffffffffffffffffffffffffffffffffffff16600260003373ffffffffffffffffffffffffffffffffffffffff1673ffffffffffffffffffffffffffffffffffffffff168152602001908152602001600020828154811061142a57611429612a1b565b5b9060005260206000200160009054906101000a900473ffffffffffffffffffffffffffffffffffffffff1673ffffffffffffffffffffffffffffffffffffffff16141561161b57600260003373ffffffffffffffffffffffffffffffffffffffff1673ffffffffffffffffffffffffffffffffffffffff1681526020019081526020016000206001836114bd9190612ab6565b815481106114ce576114cd612a1b565b5b9060005260206000200160009054906101000a900473ffffffffffffffffffffffffffffffffffffffff16600260003373ffffffffffffffffffffffffffffffffffffffff1673ffffffffffffffffffffffffffffffffffffffff168152602001908152602001600020828154811061154a57611549612a1b565b5b9060005260206000200160006101000a81548173ffffffffffffffffffffffffffffffffffffffff021916908373ffffffffffffffffffffffffffffffffffffffff160217905550600260003373ffffffffffffffffffffffffffffffffffffffff1673ffffffffffffffffffffffffffffffffffffffff1681526020019081526020016000208054806115e1576115e0612aea565b5b6001900381819060005260206000200160006101000a81549073ffffffffffffffffffffffffffffffffffffffff0219169055905561162e565b8080611626906129d2565b9150506113ba565b505050565b6060806000600160003373ffffffffffffffffffffffffffffffffffffffff1673ffffffffffffffffffffffffffffffffffffffff16815260200190815260200160002080549050905060008167ffffffffffffffff8111156116995761169861215b565b5b6040519080825280602002602001820160405280156116cc57816020015b60608152602001906001900390816116b75790505b50905060005b8281101561188a57600080600160003373ffffffffffffffffffffffffffffffffffffffff1673ffffffffffffffffffffffffffffffffffffffff168152602001908152602001600020838154811061172e5761172d612a1b565b5b9060005260206000200160009054906101000a900473ffffffffffffffffffffffffffffffffffffffff1673ffffffffffffffffffffffffffffffffffffffff1673ffffffffffffffffffffffffffffffffffffffff16815260200190815260200160002060003373ffffffffffffffffffffffffffffffffffffffff1673ffffffffffffffffffffffffffffffffffffffff16815260200190815260200160002080546117db906128ce565b80601f0160208091040260200160405190810160405280929190818152602001828054611807906128ce565b80156118545780601f1061182957610100808354040283529160200191611854565b820191906000526020600020905b81548152906001019060200180831161183757829003601f168201915b505050505082828151811061186c5761186b612a1b565b5b60200260200101819052508080611882906129d2565b9150506116d2565b5080600160003373ffffffffffffffffffffffffffffffffffffffff1673ffffffffffffffffffffffffffffffffffffffff1681526020019081526020016000208080548060200260200160405190810160405280929190818152602001828054801561194c57602002820191906000526020600020905b8160009054906101000a900473ffffffffffffffffffffffffffffffffffffffff1673ffffffffffffffffffffffffffffffffffffffff1681526020019060010190808311611902575b505050505090509350935050509091565b60008073ffffffffffffffffffffffffffffffffffffffff168373ffffffffffffffffffffffffffffffffffffffff1614156119ce576040517f08c379a00000000000000000000000000000000000000000000000000000000081526004016119c590612b8b565b60405180910390fd5b6000600560008573ffffffffffffffffffffffffffffffffffffffff1673ffffffffffffffffffffffffffffffffffffffff168152602001908152602001600020541415611a51576040517f08c379a0000000000000000000000000000000000000000000000000000000008152600401611a4890612bf7565b60405180910390fd5b60008060008573ffffffffffffffffffffffffffffffffffffffff1673ffffffffffffffffffffffffffffffffffffffff16815260200190815260200160002060003373ffffffffffffffffffffffffffffffffffffffff1673ffffffffffffffffffffffffffffffffffffffff1681526020019081526020016000208054611ad9906128ce565b905014611b1b576040517f08c379a0000000000000000000000000000000000000000000000000000000008152600401611b1290612c89565b60405180910390fd5b816000808573ffffffffffffffffffffffffffffffffffffffff1673ffffffffffffffffffffffffffffffffffffffff16815260200190815260200160002060003373ffffffffffffffffffffffffffffffffffffffff1673ffffffffffffffffffffffffffffffffffffffff1681526020019081526020016000209080519060200190611baa929190611dbb565b50600160003373ffffffffffffffffffffffffffffffffffffffff1673ffffffffffffffffffffffffffffffffffffffff168152602001908152602001600020839080600181540180825580915050600190039060005260206000200160009091909190916101000a81548173ffffffffffffffffffffffffffffffffffffffff021916908373ffffffffffffffffffffffffffffffffffffffff160217905550600260008473ffffffffffffffffffffffffffffffffffffffff1673ffffffffffffffffffffffffffffffffffffffff168152602001908152602001600020339080600181540180825580915050600190039060005260206000200160009091909190916101000a81548173ffffffffffffffffffffffffffffffffffffffff021916908373ffffffffffffffffffffffffffffffffffffffff1602179055506001905092915050565b828054611d01906128ce565b90600052602060002090601f016020900481019282611d235760008555611d6a565b82601f10611d3c57805160ff1916838001178555611d6a565b82800160010185558215611d6a579182015b82811115611d69578251825591602001919060010190611d4e565b5b509050611d779190611e41565b5090565b508054611d87906128ce565b6000825580601f10611d995750611db8565b601f016020900490600052602060002090810190611db79190611e41565b5b50565b828054611dc7906128ce565b90600052602060002090601f016020900481019282611de95760008555611e30565b82601f10611e0257805160ff1916838001178555611e30565b82800160010185558215611e30579182015b82811115611e2f578251825591602001919060010190611e14565b5b509050611e3d9190611e41565b5090565b5b80821115611e5a576000816000905550600101611e42565b5090565b600081519050919050565b600082825260208201905092915050565b6000819050602082019050919050565b6000819050919050565b611e9d81611e8a565b82525050565b600081519050919050565b600082825260208201905092915050565b60005b83811015611edd578082015181840152602081019050611ec2565b83811115611eec576000848401525b50505050565b6000601f19601f8301169050919050565b6000611f0e82611ea3565b611f188185611eae565b9350611f28818560208601611ebf565b611f3181611ef2565b840191505092915050565b600060ff82169050919050565b611f5281611f3c565b82525050565b600061ffff82169050919050565b611f6f81611f58565b82525050565b600061010083016000830151611f8e6000860182611e94565b5060208301518482036020860152611fa68282611f03565b9150506040830151611fbb6040860182611f49565b506060830151611fce6060860182611f49565b506080830151611fe16080860182611f66565b5060a0830151611ff460a0860182611f49565b5060c083015161200760c0860182611f49565b5060e083015184820360e086015261201f8282611f03565b9150508091505092915050565b60006120388383611f75565b905092915050565b6000602082019050919050565b600061205882611e5e565b6120628185611e69565b93508360208202850161207485611e7a565b8060005b858110156120b05784840389528151612091858261202c565b945061209c83612040565b925060208a01995050600181019050612078565b50829750879550505050505092915050565b600060208201905081810360008301526120dc818461204d565b905092915050565b6000604051905090565b600080fd5b600080fd5b600073ffffffffffffffffffffffffffffffffffffffff82169050919050565b6000612123826120f8565b9050919050565b61213381612118565b811461213e57600080fd5b50565b6000813590506121508161212a565b92915050565b600080fd5b7f4e487b7100000000000000000000000000000000000000000000000000000000600052604160045260246000fd5b61219382611ef2565b810181811067ffffffffffffffff821117156121b2576121b161215b565b5b80604052505050565b60006121c56120e4565b90506121d1828261218a565b919050565b600080fd5b6121e481611e8a565b81146121ef57600080fd5b50565b600081359050612201816121db565b92915050565b600080fd5b600080fd5b600067ffffffffffffffff82111561222c5761222b61215b565b5b61223582611ef2565b9050602081019050919050565b82818337600083830152505050565b600061226461225f84612211565b6121bb565b9050828152602081018484840111156122805761227f61220c565b5b61228b848285612242565b509392505050565b600082601f8301126122a8576122a7612207565b5b81356122b8848260208601612251565b91505092915050565b6122ca81611f3c565b81146122d557600080fd5b50565b6000813590506122e7816122c1565b92915050565b6122f681611f58565b811461230157600080fd5b50565b600081359050612313816122ed565b92915050565b600061010082840312156123305761232f612156565b5b61233b6101006121bb565b9050600061234b848285016121f2565b600083015250602082013567ffffffffffffffff81111561236f5761236e6121d6565b5b61237b84828501612293565b602083015250604061238f848285016122d8565b60408301525060606123a3848285016122d8565b60608301525060806123b784828501612304565b60808301525060a06123cb848285016122d8565b60a08301525060c06123df848285016122d8565b60c08301525060e082013567ffffffffffffffff811115612403576124026121d6565b5b61240f84828501612293565b60e08301525092915050565b60008115159050919050565b6124308161241b565b811461243b57600080fd5b50565b60008135905061244d81612427565b92915050565b60008060006060848603121561246c5761246b6120ee565b5b600061247a86828701612141565b935050602084013567ffffffffffffffff81111561249b5761249a6120f3565b5b6124a786828701612319565b92505060406124b88682870161243e565b9150509250925092565b600081519050919050565b600082825260208201905092915050565b6000819050602082019050919050565b600081519050919050565b600082825260208201905092915050565b6000612515826124ee565b61251f81856124f9565b935061252f818560208601611ebf565b61253881611ef2565b840191505092915050565b600061254f838361250a565b905092915050565b6000602082019050919050565b600061256f826124c2565b61257981856124cd565b93508360208202850161258b856124de565b8060005b858110156125c757848403895281516125a88582612543565b94506125b383612557565b925060208a0199505060018101905061258f565b50829750879550505050505092915050565b600081519050919050565b600082825260208201905092915050565b6000819050602082019050919050565b61260e81612118565b82525050565b60006126208383612605565b60208301905092915050565b6000602082019050919050565b6000612644826125d9565b61264e81856125e4565b9350612659836125f5565b8060005b8381101561268a5781516126718882612614565b975061267c8361262c565b92505060018101905061265d565b5085935050505092915050565b600060408201905081810360008301526126b18185612564565b905081810360208301526126c58184612639565b90509392505050565b6126d78161241b565b82525050565b60006020820190506126f260008301846126ce565b92915050565b600080600060608486031215612711576127106120ee565b5b600061271f86828701612141565b935050602061273086828701612141565b9250506040612741868287016121f2565b9150509250925092565b61275481611e8a565b82525050565b600060208201905061276f600083018461274b565b92915050565b60006020828403121561278b5761278a6120ee565b5b600061279984828501612141565b91505092915050565b600067ffffffffffffffff8211156127bd576127bc61215b565b5b6127c682611ef2565b9050602081019050919050565b60006127e66127e1846127a2565b6121bb565b9050828152602081018484840111156128025761280161220c565b5b61280d848285612242565b509392505050565b600082601f83011261282a57612829612207565b5b813561283a8482602086016127d3565b91505092915050565b6000806040838503121561285a576128596120ee565b5b600061286885828601612141565b925050602083013567ffffffffffffffff811115612889576128886120f3565b5b61289585828601612815565b9150509250929050565b7f4e487b7100000000000000000000000000000000000000000000000000000000600052602260045260246000fd5b600060028204905060018216806128e657607f821691505b602082108114156128fa576128f961289f565b5b50919050565b600082825260208201905092915050565b7f5342543a2043616e64696461746520686173206e6f742072657175657374207460008201527f6865205342540000000000000000000000000000000000000000000000000000602082015250565b600061296d602683612900565b915061297882612911565b604082019050919050565b6000602082019050818103600083015261299c81612960565b9050919050565b7f4e487b7100000000000000000000000000000000000000000000000000000000600052601160045260246000fd5b60006129dd82611e8a565b91507fffffffffffffffffffffffffffffffffffffffffffffffffffffffffffffffff821415612a1057612a0f6129a3565b5b600182019050919050565b7f4e487b7100000000000000000000000000000000000000000000000000000000600052603260045260246000fd5b7f5342543a20696e76616c69642069640000000000000000000000000000000000600082015250565b6000612a80600f83612900565b9150612a8b82612a4a565b602082019050919050565b60006020820190508181036000830152612aaf81612a73565b9050919050565b6000612ac182611e8a565b9150612acc83611e8a565b925082821015612adf57612ade6129a3565b5b828203905092915050565b7f4e487b7100000000000000000000000000000000000000000000000000000000600052603160045260246000fd5b7f5342543a20636f6d70616e7920616464726573732063616e6e6f74206265207460008201527f6865207a65726f20616464726573730000000000000000000000000000000000602082015250565b6000612b75602f83612900565b9150612b8082612b19565b604082019050919050565b60006020820190508181036000830152612ba481612b68565b9050919050565b7f5342543a20636f6d70616e79206e6f7420726567697374657264000000000000600082015250565b6000612be1601a83612900565b9150612bec82612bab565b602082019050919050565b60006020820190508181036000830152612c1081612bd4565b9050919050565b7f5342543a207265717565737420697320616c726561647920696e2070656e646960008201527f6e67206c69737400000000000000000000000000000000000000000000000000602082015250565b6000612c73602783612900565b9150612c7e82612c17565b604082019050919050565b60006020820190508181036000830152612ca281612c66565b905091905056fea2646970667358221220cdfc3e0a9c7ab2f97b68395598bc2746f1923caf66c10305a9bc33c301af15cb64736f6c634300080a0033",
  "immutableReferences": {},
  "source": "// SPDX-License-Identifier: MIT\r\npragma solidity ^0.8.0;\r\n\r\ncontract SBT {\r\n\r\n    struct SkillSBT {\r\n        uint id;\r\n        string name;\r\n        uint8 issueDay;\r\n        uint8 issueMonth;\r\n        uint16 issueYear;\r\n        uint8 difficulty;\r\n        uint8 testType;\r\n        string companyAddress;\r\n    }\r\n\r\n    mapping(address => mapping(address => bytes)) private pendingSBTRequests;\r\n    mapping(address => address[]) private pendingSBTCandidate;\r\n    mapping(address => address[]) private pendingSBTCompany;\r\n\r\n    mapping(address => mapping(address => SkillSBT[])) private issuedSBT;\r\n    mapping(address => SkillSBT[]) private issuedSBTCandidate;\r\n\r\n    /** \r\n     * @dev Tracks the count of a company's issued SBT\r\n     * \r\n     * - 0 means company is not registered.\r\n     * - 1 means company is registerd.\r\n     * - n means company has issued n-1 SBT. \r\n    */\r\n    mapping (address => uint) private countIssued;\r\n\r\n    /** \r\n     * @dev Registers the caller with the contract.\r\n     *\r\n     * Requirements:\r\n     *\r\n     * - the caller (company) must not be already registered.\r\n     */\r\n    function registerCompany() external returns (bool) {\r\n        if (countIssued[msg.sender] != 0) {\r\n            return false;\r\n        }\r\n        countIssued[msg.sender] = 1;\r\n        return true;\r\n    }\r\n\r\n    /**\r\n     * @dev Requests a SBT from `company` for the caller's account.\r\n     *\r\n     * Returns a boolean value indicating whether the operation succeeded.\r\n     *\r\n     * Requirements:\r\n     *\r\n     * - `company` cannot be the zero address.\r\n     * - `company` must be registerd with contract.\r\n     * - the caller must not have requested the same `company` before.\r\n     */\r\n    function requestSBT(address company, bytes memory credentialId) external returns (bool) {\r\n        require(company != address(0), \"SBT: company address cannot be the zero address\");\r\n        require(countIssued[company] != 0, \"SBT: company not registerd\");\r\n\r\n        require (pendingSBTRequests[company][msg.sender].length == 0, \"SBT: request is already in pending list\");\r\n\r\n        pendingSBTRequests[company][msg.sender] = credentialId;\r\n        pendingSBTCandidate[msg.sender].push(company);\r\n        pendingSBTCompany[company].push(msg.sender);\r\n        return true;\r\n    }\r\n\r\n    /** \r\n     * @dev Returns count of SBT issued by the caller (company)\r\n     */\r\n    function getCountIssued() external view returns (uint) {\r\n        return countIssued[msg.sender];\r\n    }\r\n\r\n    /**\r\n     * @dev Returns the Pending SBTs of the caller [Candidate]\r\n     */\r\n    function getPendingSBTCandidate() external view returns (bytes[] memory, address[] memory) {\r\n        uint length = pendingSBTCandidate[msg.sender].length;\r\n        bytes[] memory credentialIds = new bytes[](length);\r\n        for (uint i = 0; i < length; i++) {\r\n            credentialIds[i] = pendingSBTRequests[pendingSBTCandidate[msg.sender][i]][msg.sender];\r\n        }\r\n        return (credentialIds, pendingSBTCandidate[msg.sender]);\r\n    }\r\n\r\n    /**\r\n     * @dev Returns the Pending SBTs of the caller [Company]\r\n     */\r\n    function getPendingSBTCompany() external view returns (bytes[] memory, address[] memory) {\r\n        uint length = pendingSBTCompany[msg.sender].length;\r\n        bytes[] memory credentialIds = new bytes[](length);\r\n        for (uint i = 0; i < length; i++) {\r\n            credentialIds[i] = pendingSBTRequests[msg.sender][pendingSBTCompany[msg.sender][i]];\r\n        }\r\n        return (credentialIds, pendingSBTCompany[msg.sender]);\r\n    }\r\n\r\n    /**\r\n     * @dev Takes an address, credentialId, response and responds to the SBT\r\n     * Request\r\n     */\r\n    function respondToRequest(address candidate, SkillSBT memory skillSBT, bool response) external {\r\n        require(\r\n            pendingSBTRequests[msg.sender][candidate].length != 0,\r\n            \"SBT: Candidate has not request the SBT\"\r\n        );\r\n        \r\n        if (response == true) {\r\n            skillSBT.id = countIssued[msg.sender];\r\n            countIssued[msg.sender]++;\r\n            issuedSBTCandidate[candidate].push(skillSBT);\r\n            issuedSBT[msg.sender][candidate].push(skillSBT);\r\n        }\r\n        rejectRequest(candidate);\r\n    }\r\n\r\n\r\n    /**\r\n     * @dev Removes the request from the pending requests list.\r\n     */\r\n    function rejectRequest(address candidate) public {\r\n        delete pendingSBTRequests[msg.sender][candidate];\r\n        uint length = pendingSBTCandidate[candidate].length;\r\n        for (uint i = 0; i < length; i++) {\r\n            if (pendingSBTCandidate[candidate][i] == msg.sender) {\r\n                pendingSBTCandidate[candidate][i] = pendingSBTCandidate[candidate][length-1];\r\n                pendingSBTCandidate[candidate].pop();\r\n                break;\r\n            }\r\n        }\r\n\r\n        length = pendingSBTCompany[msg.sender].length;\r\n        for (uint i = 0; i < length; i++) {\r\n            if (pendingSBTCompany[msg.sender][i] == candidate) {\r\n                pendingSBTCompany[msg.sender][i] = pendingSBTCompany[msg.sender][length-1];\r\n                pendingSBTCompany[msg.sender].pop();\r\n                break;\r\n            }\r\n        }\r\n    }\r\n\r\n    /**\r\n     * @dev Returns all the SBTs issued to the caller.\r\n     */\r\n    function getIssuedSBTCandidate() external view returns (SkillSBT[] memory) {\r\n        return issuedSBTCandidate[msg.sender];\r\n    }\r\n\r\n    /**\r\n     * @dev Returns a boolean value indicating whether `company` has issued a SBT\r\n     * with `id` to the `candidate` or not.\r\n     *\r\n     * Requirements:\r\n     *\r\n     * - `id` cannot be greater than the total SBT issued by the `company`\r\n     */\r\n    function verifySBT(address company, address candidate, uint id) external view returns (bool) {\r\n        require (id >= 1 && id <= countIssued[company], \"SBT: invalid id\");\r\n        SkillSBT[] memory temp = issuedSBT[company][candidate];   \r\n        for (uint i = 0; i < temp.length; i++) {\r\n            if (temp[i].id == id) {\r\n                return true;\r\n            }\r\n        }\r\n        return false;\r\n    }\r\n\r\n}",
  "sourcePath": "C:\\My Data\\Sem0\\React Apps\\soul-xp\\client\\src\\truffle\\contracts\\SBT.sol",
  "compiler": {
    "name": "solc",
    "version": "0.8.10+commit.fc410830.Emscripten.clang"
  },
  "schemaVersion": "3.4.3",
  "updatedAt": "2022-07-26T00:10:32.390Z",
  "networkType": "ethereum",
  "devdoc": {
    "kind": "dev",
    "methods": {
      "getCountIssued()": {
        "details": "Returns count of SBT issued by the caller (company)"
      },
      "getIssuedSBTCandidate()": {
        "details": "Returns all the SBTs issued to the caller."
      },
      "getPendingSBTCandidate()": {
        "details": "Returns the Pending SBTs of the caller [Candidate]"
      },
      "getPendingSBTCompany()": {
        "details": "Returns the Pending SBTs of the caller [Company]"
      },
      "registerCompany()": {
        "details": "Registers the caller with the contract. Requirements: - the caller (company) must not be already registered."
      },
      "rejectRequest(address)": {
        "details": "Removes the request from the pending requests list."
      },
      "requestSBT(address,bytes)": {
        "details": "Requests a SBT from `company` for the caller's account. Returns a boolean value indicating whether the operation succeeded. Requirements: - `company` cannot be the zero address. - `company` must be registerd with contract. - the caller must not have requested the same `company` before."
      },
      "respondToRequest(address,(uint256,string,uint8,uint8,uint16,uint8,uint8,string),bool)": {
        "details": "Takes an address, credentialId, response and responds to the SBT Request"
      },
      "verifySBT(address,address,uint256)": {
        "details": "Returns a boolean value indicating whether `company` has issued a SBT with `id` to the `candidate` or not. Requirements: - `id` cannot be greater than the total SBT issued by the `company`"
      }
    },
    "stateVariables": {
      "countIssued": {
        "details": "Tracks the count of a company's issued SBT  - 0 means company is not registered. - 1 means company is registerd. - n means company has issued n-1 SBT. "
      }
    },
    "version": 1
  },
  "userdoc": {
    "kind": "user",
    "methods": {},
    "version": 1
  }
}